:020000040800F2
:10000000FFFF0020E51000082D1100082D11000849
:100010002D1100082D1100082D110008000000000E
:100020000000000000000000000000002D1100088A
:100030002D110008000000002D1100082D110008EE
:100040002D1100082D1100082D1100082D11000898
:100050002D1100082D1100082D1100082D11000888
:100060002D1100082D1100082D1100082D11000878
:100070002D1100082D1100082D1100082D11000868
:100080002D1100082D1100082D1100082D11000858
:100090002D1100082D1100082D1100082D11000848
:1000A0002D1100082D1100082D1100082D11000838
:1000B000490800082D1100082D1100082D11000815
:1000C0002D1100082D1100082D1100082D11000818
:1000D0002D110008490500082D1100082D110008F8
:1000E0002D1100082D1100082D1100082D110008F8
:1000F0002D1100082D1100082D1100082D110008E8
:100100002D1100082D1100082D1100082D110008D7
:100110002D1100082D1100082D1100082D110008C7
:100120002D1100082D1100082D1100082D110008B7
:100130002D1100082D1100082D1100082D110008A7
:100140002D1100082D1100082D1100082D11000897
:100150002D1100082D1100082D1100082D11000887
:100160002D1100082D1100082D1100082D11000877
:100170002D1100082D1100082D1100082D11000867
:080180002D1100082D110008EB
:1001880040F23803C2F200031A780AB90120187045
:10019800704700BF40F23400C2F2000008B503689F
:1001A8002BB140F20003C0F2000303B1984708BD29
:1001B8002DE9F84300F03EFF00F084FA4FF4E130F7
:1001C80000F0D0F800F0ECFA00F084FC00210A46B8
:1001D8000B46012000F0B2FA00F096FD41F2B8108B
:1001E800C0F6000040F2040540F23C0400F01CF99F
:1001F800C2F2000500F060FEC2F20004C8270A2619
:100208004FF0C9080BE0002001460246034600F003
:1002180095FA4FF41060C0F23D0000F0F9FA0020A2
:1002280001460246012300F089FA44F24020C0F258
:100238000F0000F0EDFA00F043FB0028E3D000F0D7
:10024800C3FB288000F0CAFB2A886880034640F276
:100258003C004FEA232C4FEA122EC2F2000008217C
:10026800277084F801C0A370E67084F8048084F8CD
:1002780005E0A271E67100F00DFD30B141F2D41035
:10028800C0F6000000F0D0F8BDE741F2E410C0F677
:10029800000000F0C9F8B6E7F0B541F23C1EC2F222
:1002A800000E2F4D4FF460560024C4F202064EF89B
:1002B800F04C2C606C60376B47F002013163726C54
:1002C80042F0100383B073640746062107222046D4
:1002D80000F09CF90721022601250A46204600F075
:1002E80095F928460621324623460195009600F0E6
:1002F8004FF9284607213246234601954FF4044515
:10030800C1F2D7750096B74000F042F948F21F5C79
:10031800B5FBF7F7C5F2EB1CACFB070149096420F4
:1003280001FB107213013233ACFB0305C5F3431014
:100338004FF48055C4F2010540EA01131FFA83FC0B
:100348002C222C822520AA81AC82A5F808C000F0B6
:100358008FFAA98988B240F40053AB8103B0F0BD8D
:1003680044100020F0B541F23C1EC2F2000E4FF4DA
:1003780060560024C4F202064EF8F04C376B47F082
:1003880004013163726C42F0200383B00225736468
:10039800074606210220082200F038F928460721DE
:1003A800082200F033F9012628462A46062123466A
:1003B8000095019600F0ECF828462A4607212346C6
:1003C8000095019600F0E4F84FF40443C1F2D773A6
:1003D800AF4048F21F5CB3FBF7F7C5F2EB1CACFB70
:1003E80007014909642001FB107213013233ACFB89
:1003F8000305C5F343104FF4A055C4F2010540EAC4
:1004080001131FFA83FC08222C824720AA81AC82A0
:10041800A5F808C000F02CFAA98988B240F4005366
:10042800AB8103B0F0BD00BF017861B14FF4A052B9
:10043800C4F20102138813F0400FFBD0918010F82A
:10044800011F0029F6D1704730B44FF4A053C4F20D
:10045800010319884FF4A05211F0400FC4F20102B1
:10046800F7D03023938011460C884FF4A05214F033
:10047800400FC4F20102F7D0622595801346072485
:100488000125114615FA04F210421CD1B3F800C038
:100498001CF0400FFAD03022013C8A80F2D241F29F
:1004A800F4104FF4A052C0F600000D21C4F201026E
:1004B800138813F0400FFBD0918010F8011F00291A
:1004C800F6D130BC7047B3F800C01CF0400FFAD02A
:1004D8003122013C8A80D5D2E1E700BF10B471B166
:1004E8004FF480520024C4F20102035D9380B2F8F5
:1004F80000C01CF0400FFAD00134A142F5D810BC5E
:10050800704700BF034842680168531A584240EBDD
:10051800030070474410002040F24403C2F2000375
:1005280003F5805210B411685068884206D0481C00
:100538000405240D585C146010BC70472020FBE7AC
:1005480030B44FF48053C4F201031A8812F0200F1C
:100558001CD040F24405C2F2000505F58054998884
:100568006068295441F23C11B3F800C0C2F200019E
:100578002CF0200251F8F05C013012040005120C36
:10058800000D01351A80606041F8F05C30BC70479E
:100598002DE9F0014FF4605541F29014C4F20205C0
:1005A800C0F60004D5F830C054F820709DF81460E7
:1005B8009DF8188004EB80004CEA070440692C631E
:1005C8004C0003250768A540ED4305EA070C12FA1D
:1005D80004F74CEA07020260426801278F4022EACA
:1005E800070C13FA01F141EA0C0343608268A64044
:1005F80005EA02010E438660C36808FA04F41D4048
:100608002C43C460BDE8F001704700BF70B441F2EC
:10061800901C4FF46054C4F20204C0F6000C266B20
:100628005CF820500CEB8003072946EA050020639C
:100638005B690DD81C6A03F1200089000F238B40E9
:1006480024EA03038A4043EA0201016070BC704750
:1006580003F1240008395C6AEFE700BF7AB941F278
:100668009013C0F6000303EB800C0120DCF8143073
:100678005A69884022EA000159615B69704741F272
:100688009013C0F6000303EB800C0120DCF8143053
:100698005A69884040EA020159615B69704700BFA6
:1006A80041F29013C0F6000303EB800C0120DCF844
:1006B8001420136910FA01F21A420CBF002001201D
:1006C800704700BF10B5002482B003200C2101221E
:1006D800234600940194FFF75BFF03200D210122BC
:1006E800234600940194FFF753FF03200E210122B3
:1006F800234600940194FFF74BFF03200F210122AA
:10070800234600940194FFF743FF02B010BD00BFD9
:100718004FF44063C4F20203586920F480525A61CE
:10072800596921F4005058615A6922F4804159618D
:10073800586920F400425A61704700BFF8B5044672
:100748000D4616461F46FFF7E3FF3CB14FF44063E2
:10075800C4F20203586940F480525A614DB14FF413
:10076800406CC4F2020CDCF8142042F40051CCF8BE
:1007780014104EB14FF4406EC4F2020EDEF814307D
:1007880043F48040CEF814004FB14FF4406CC4F2EB
:10079800020CDCF8142042F40041CCF81410F8BD27
:1007A8004FF4605CC4F2020C4FF08043DCF8402048
:1007B8000F2142F001004FF47A72CCF840001985FD
:1007C800DA62988981B241F001029A81B3F800C0D7
:1007D8001FFA8CF040F0810101221C2019809A82B6
:1007E80000F046B841F25003C2F2000300221A603A
:1007F800704700BF41F2500CC2F2000C4FF080412C
:10080800DCF800204B6A4FF47A7000FB0230704726
:1008180030B441F25003C2F200034FF080441D6827
:10082800626A4FF47A7101FB05221018904205D9CB
:100838001D68626A01FB052C6045F9D830BC704719
:100848004FF08040038A13F0010F06D041F25001A7
:10085800C2F200010B685A1C0A604FF0804CBCF8C9
:10086800103023F001010A04100CACF81000704796
:1008780000F11F0212EA200238BF0246521151014C
:100888004FF46143401ACEF20003012111FA00F03F
:1008980043F82200704700BF00F11F0212EA20024D
:1008A80038BF0246521151014FF46143401ACEF24B
:1008B80000032032012111FA00F043F822007047AA
:1008C8002DE9F04F41F2540541F2A41483B00026FB
:1008D8000227C2F20005C0F6000433460D210122AA
:1008E80038462E602E7101960097FFF751FEA468D6
:1008F800626922F40051616140F2DC50FFF788FF21
:10090800606940F4005363613220FFF781FF32468B
:10091800334638460D21012600970196FFF738FE29
:10092800FFF760FF276917F4005FFBD12669FFF71F
:1009380061FF8246C6F34037D1464FF0FF3842F296
:100948000F7B2369C3F34036002F14BF4FF0000E0E
:1009580006F0010E86F0010CBEF1000F18BF8146AB
:1009680017EA0C0F11D0B8F1FF3F0CD0C8F3C7013C
:10097800C9EB000C6A5CBCF1320F84BF42F0010283
:100988006A545000685408F10108FFF733FFB8F1C2
:10099800280F05DCCAEB000EDE4501D83746D0E744
:1009A8002A786C78A978E87895F804C0A31803EB3E
:1009B800010E0EEB0002D1B2C1EB0C03584240EB22
:1009C800030003B0BDE8F08F41F25401C2F2000108
:1009D80008784B7843EA0020704700BF41F2540280
:1009E800C2F200029178D37843EA012000B270473E
:1009F80030B441F2540CC2F2000C9CF801509CF83F
:100A080000409CF802109CF803209CF804C02B19A5
:100A180058188118CBB2C3EB0C02504240EB0200CD
:100A280030BC704741F25403C2F200035878197879
:100A38009A78DB7800EB010C0CEB0201C818C0B205
:100A4800704700BFF8B541F2A414C0F6000405468B
:100A58002468606920F01003636114200E4617466D
:100A6800FFF7D6FE4FF44051C4F201010A894FF452
:100A7800405312F0020FC4F20103F7D09D81198987
:100A88004FF4405211F0010FC4F20102F7D09589DA
:100A9800EDB2B7B1711C013F134651FA87FE1046FB
:100AA80037780E46B3F808C01CF0020FFAD08781D9
:100AB8001A8912F0010FFBD07145828901D00131EA
:100AC800EEE7606940F0100363611420FFF7A0FEB1
:100AD8002846F8BD30B54FF4605EC4F2020E83B00C
:100AE800DEF844200224002042F48055CEF8445019
:100AF80003460521224600940194FFF749FD002092
:100B080006212246012300940194FFF741FD0020AD
:100B180003460721224600940194FFF739FD052179
:100B28000A460020FFF772FD002006210522FFF784
:100B38006DFD002007210522FFF768FD0020034610
:100B480003210122012500940194FFF721FD0020D3
:100B5800034604212A4600940195FFF719FD4FF436
:100B68004053C4F201034FF4417CA3F800C0198834
:100B780088B240F040021A8003B030BD38B541F267
:100B8800A411C0F6000105460C68606920F0100346
:100B980063611420FFF73CFE4FF44051C4F2010199
:100BA8000A894FF4405312F0020FC4F20103F7D040
:100BB8009D8119460D894FF4405315F0010FC4F279
:100BC8000103F7D09A891946B1F808C04FF4405389
:100BD8001CF0020FC4F20103F6D0FF209881B3F88D
:100BE80008E04FF440521EF0010FC4F20102F6D0A3
:100BF8009189626942F010038DB214206361FFF796
:100C080007FEE8B238BD00BF70B541F2A412C0F6C5
:100C1800000205461468606920F01003636114201F
:100C28000E46FFF7F5FD4FF44051C4F20101B1F84B
:100C380008C04FF440531CF0020FC4F20103F6D071
:100C48009D8119460D894FF4405315F0010FC4F2E8
:100C58000103F7D0B3F80CE019465FFA8EF508895E
:100C68004FF4405310F0020FC4F20103F7D09E81F5
:100C780019894FF4405211F0010FC4F20102F7D064
:100C88009389626942F0100314206361FFF7C0FD85
:100C9800284670BD70B541F2A414C0F6000405469C
:100CA8002468666926F0080363610E4627207E21C2
:100CB800FFF7AAFF0E212020FFF7A6FF0021E12061
:100CC800FFF7A2FF32462946A020FFF7BBFE2021EE
:100CD8002720FFF799FFC820FFF79AFD626942F0C5
:100CE800080161611420FFF793FD606920F0080393
:100CF800636141F28830FFF78BFD0720FFF73EFF65
:100D0800C0F3401070BD00BF10B541F2A414C0F686
:100D180000040E212368586920F008025A61202037
:100D2800FFF772FF00212120FFF76EFF0321222029
:100D3800FFF76AFF03212320FFF766FFFF21242026
:100D4800FFF762FF60212520FFF75EFF24212620A0
:100D5800FFF75AFF40F2080408213120FFF754FF3B
:100D6800C2F2000408213220FFF74EFF2146052277
:100D78003020FFF767FE04F1080105222A20FFF75B
:100D880061FE052204F110012B20FFF75BFE06210E
:100D98003D20FFF739FF3C203F21FFF735FF44F6A0
:100DA800F010C0F20200BDE81040FFF731BD00BFEF
:100DB800F8B541F2A414C0F6000405462468606939
:100DC80020F01003636114200E461746FFF720FD3C
:100DD8004FF44051C4F201010A894FF4405312F014
:100DE800020FC4F20103F7D09D8119894FF44052D4
:100DF80011F0010FC4F20102F7D09589EDB2BFB12D
:100E0800711C781E51FA80F013461146B3F808C0D9
:100E18001CF0020FFAD0FF229A81B3F808E01EF006
:100E2800010FFAD0B1F80CC006F801CB8642EDD11B
:100E3800606940F0100363611420FFF7E9FC28465D
:100E4800F8BD00BF38B505460720FFF797FE0446F2
:100E580001462720FFF7D8FE14F0400005D0612096
:100E680029462022FFF7A4FF012038BD4FF4405344
:100E7800C4F2010319894FF4405211F0020FC4F271
:100E88000102F7D0908110894FF4405310F0010F00
:100E9800C4F20103F7D09A89D0B2704710B504465E
:100EA80041F2F810C0F60000FFF7BEFA2046BDE890
:100EB8001040FFF7C9BA00BF10B50020FFF75EFE6B
:100EC800044641F20420C0F60000FFF7ADFA2046C0
:100ED800FFF7BAFA0120FFF751FE044641F210204D
:100EE800C0F60000FFF7A0FA2046FFF7ADFA02208F
:100EF800FFF744FE044641F21C20C0F60000FFF74D
:100F080093FA2046FFF7A0FA0320FFF737FE0446BE
:100F180041F22C20C0F60000FFF786FA2046FFF7C2
:100F280093FA0420FFF72AFE044641F23820C0F65F
:100F38000000FFF779FA2046FFF786FA0520FFF749
:100F48001DFE044641F24820C0F60000FFF76CFA87
:100F58002046FFF779FA0620FFF710FE044641F213
:100F68005420C0F60000FFF75FFA2046FFF76CFA3E
:100F78001120FFF703FE044641F26020C0F600008E
:100F8800FFF752FA2046FFF75FFA1220FFF7F6FD47
:100F9800044641F26C20C0F60000FFF745FA2046EF
:100FA800FFF752FA1D20FFF7E9FD044641F27820C9
:100FB800C0F60000FFF738FA2046FFF745FA1C2074
:100FC800FFF7DCFD044641F28420C0F60000FFF77D
:100FD8002BFA2046BDE81040FFF736BA4FF4605CA4
:100FE800C4F2020C0021DCF8003043F00102CCF816
:100FF8000020CCF80810DCF8000043F2100220F0C2
:10100800847323F48030C2F20042CCF80000CCF89C
:101018000420DCF800304FF46D42CEF2000223F4D5
:1010280080204FF00063CCF80000CCF80C109360DF
:10103800704700BF4FF46053C4F202039A6802F08D
:101048000C02042A04BF47F64001C0F27D1106D005
:10105800082A1CBF4FF41051C0F2F4010FD04FF40E
:101068006050C4F2020040F220038268C2F200031A
:10107800C2F3031C13F80C00C1401961704758688B
:101088005A68596810F4800F4FF4605C14BF47F633
:1010980040034FF41053C4F2020C14BFC0F27D1386
:1010A800C0F2F40302F03F02C1F38810B3FBF2F17F
:1010B800DCF80430C3F3014201FB00F1501C43008B
:1010C800B1FBF3F1CBE700BF981200080000002045
:1010D80034000020380000205C100020002103E0CC
:1010E8000B4B5B58435004310A480B4B42189A4249
:1010F800F6D30A4A02E0002342F8043B084B9A421E
:10110800F9D3FFF76BFF00F00FF8FFF751F87047BE
:101118009812000800000020340000203800002049
:101128005C100020FEE7000070B500240C4D0D4E49
:10113800761BB61003E055F8043B01349847B442D7
:10114800F9D3094D00F014F8084E0024761BB610A8
:1011580003E055F8043B01349847B442F9D370BD15
:1011680090120008901200089012000894120008CB
:10117800F8B500BFF8BC08BC9E467047F8B500BF7C
:08118800F8BC08BC9E4670474C
:101190000100000002000000040000000800000040
:1011A000100000000000024000040240000802405D
:1011B000000C0240001002400D0A6E524632344CC0
:1011C0003031205265676973746572730D0A0D0AB8
:1011D00000000000747820737563636573730D0AF3
:1011E000000000007478206661696C7572650D0AF4
:1011F000000000000D0A0000535441545553203D97
:1012000020000000434F4E464947203D200000008B
:10121000454E5F4141203D2000000000454E5F5299
:101220005841444452203D2000000000534554558D
:10123000505F4157203D200053455455505F524563
:101240005452203D2000000052465F4348203D207C
:101250000000000052465F5345545550203D200089
:1012600052585F50575F5030203D200052585F5019
:10127000575F5031203D200046454154555245208E
:101280003D20000044594E5044203D200000000005
:041290009D010008B4
:0412940089010008C4
:101298000000000038001600C2C2C2C2C20000002E
:1012A800C2C2C2C2C2000000E7E7E7E7E7000000E9
:1012B80000000000000000000102030406070809FE
:0412C8000024F4000A
:0412CC00000000001E
:04000005080010E5FA
:00000001FF
