:020000040800F2
:10000000FFFF0020490C0008910C0008910C00082B
:10001000910C0008910C0008910C000800000000F1
:10002000000000000000000000000000910C00082B
:10003000910C000800000000910C0008910C0008D1
:10004000910C0008910C0008910C0008910C00081C
:10005000910C0008910C0008910C0008910C00080C
:10006000910C0008910C0008910C0008910C0008FC
:10007000910C0008910C0008910C0008910C0008EC
:10008000910C0008910C0008910C0008910C0008DC
:10009000910C0008910C0008910C0008910C0008CC
:1000A000910C0008910C0008910C0008910C0008BC
:1000B00001070008910C0008910C0008910C000841
:1000C000910C0008910C0008910C0008910C00089C
:1000D000910C000849040008910C0008910C0008DC
:1000E000910C0008910C0008910C0008910C00087C
:1000F000910C0008910C0008910C0008910C00086C
:10010000910C0008910C0008910C0008910C00085B
:10011000910C0008910C0008910C0008910C00084B
:10012000910C0008910C0008910C0008910C00083B
:10013000910C0008910C0008910C0008910C00082B
:10014000910C0008910C0008910C0008910C00081B
:10015000910C0008910C0008910C0008910C00080B
:10016000910C0008910C0008910C0008910C0008FB
:10017000910C0008910C0008910C0008910C0008EB
:08018000910C0008910C00082D
:1001880040F21C03C2F200031A780AB90120187061
:10019800704700BF40F21800C2F2000008B50368BB
:1001A8002BB140F20003C0F2000303B1984708BD29
:1001B80038B540F22005C2F20005002400F0ECFC3E
:1001C80000F0FCF94FF4E13000F096F800F040FA46
:1001D8004FF4E1302C7000F029F801222346214623
:1001E80020466C6000F0FEF940F61C50C0F6000096
:1001F80000F0E4F8012213462146204600F0F2F907
:1002080000F0FAFB054644F24020C0F20F0000F06F
:1002180057FA2046214601222B4600F0E3F944F222
:100228004020C0F20F0000F04BFAF8E7F0B541F2B9
:10023800201EC2F2000E2F4D4FF460560024C4F267
:1002480002064EF8F04C2C606C60376B47F00201E8
:100258003163726C42F0100383B073640746062161
:100268000120072200F052F90125072102260A463B
:10027800284600F04BF928460621324623460195C8
:10028800009600F005F928460721324623460195D5
:100298004FF40445C1F2D7750096B74000F0F8F85E
:1002A80048F21F5CB5FBF7F7C5F2EB1CACFB070186
:1002B8004909642001FB107213013233ACFB0305BA
:1002C800C5F343104FF48055C4F2010540EA011309
:1002D8001FFA83FC2C222C822520AA81AC82A5F847
:1002E80008C000F021FAA98988B240F40053AB8114
:1002F80003B0F0BD28100020F0B541F2201EC2F274
:10030800000E4FF460560024C4F202064EF8F04C7A
:10031800376B47F001013163326C42F4003383B02C
:1003280033640746022107222046022500F0EEF832
:1003380020460321072200F0E9F8012629462A462B
:10034800204623460095019600F0A2F820462A464A
:10035800032123460095019600F09AF84FF40443D0
:10036800C1F2D773AF4048F21F5CB3FBF7F7C5F291
:10037800EB1CACFB07014909642001FB1072130157
:100388003233ACFB0305C5F343104FF48845C4F280
:10039800000540EA01131FFA83FC08222C8226205C
:1003A800AA81AC82A5F808C000F0BEF9A98988B274
:1003B80040F40053AB8103B0F0BD00BF017861B1D8
:1003C8004FF48842C4F20002138813F0400FFBD0A8
:1003D800918010F8011F0029F6D1704710B471B14F
:1003E8004FF480520024C4F20102035D9380B2F8F6
:1003F80000C01CF0400FFAD00134A142F5D810BC5F
:10040800704700BF034842680168531A584240EBDE
:10041800030070472810002040F22803C2F20003AE
:1004280003F5805210B411685068884206D0481C01
:100438000405240D585C146010BC70472020FBE7AD
:1004480030B44FF48053C4F201031A8812F0200F1D
:100458001CD040F22805C2F2000505F580549988A1
:100468006068295441F22011B3F800C0C2F20001BB
:100478002CF0200251F8F05C013012040005120C37
:10048800000D01351A80606041F8F05C30BC70479F
:100498002DE9F0014FF4605540F6F444C4F202052A
:1004A800C0F60004D5F830C054F820709DF81460E8
:1004B8009DF8188004EB80004CEA070440692C631F
:1004C8004C0003250768A540ED4305EA070C12FA1E
:1004D80004F74CEA07020260426801278F4022EACB
:1004E800070C13FA01F141EA0C0343608268A64045
:1004F80005EA02010E438660C36808FA04F41D4049
:100508002C43C460BDE8F001704700BF70B440F6EA
:10051800F44C4FF46054C4F20204C0F6000C266B8D
:100528005CF820500CEB8003072946EA050020639D
:100538005B690DD81C6A03F1200089000F238B40EA
:1005480024EA03038A4043EA0201016070BC704751
:1005580003F1240008395C6AEFE700BF6AB940F686
:10056800F442C0F6000202EB800C0123DCF8140010
:1005780013FA01F291B24183704740F6F443C0F692
:10058800000303EB800C0122DCF8143012FA01F0AE
:1005980081B21983704700BF40F6F443C0F60003E8
:1005A80003EB800C0120DCF81420136910FA01F227
:1005B8001A420CBF00200120704700BF4FF4605C56
:1005C800C4F2020C4FF44063DCF83020C4F202039A
:1005D80042F00801CCF83010186840F0AA421A60BE
:1005E800704700BF30B44FF44064C4F20204656938
:1005F80025F47045656118B1606940F48050606108
:1006080039B14FF44061C4F20201486940F4005026
:1006180048613AB14FF44062C4F20202506940F4B2
:10062800804151613BB14FF44063C4F202035A69FF
:1006380042F40041596130BC704700BF4FF4406339
:10064800C4F20203586920F470425A61704700BF2F
:100658004FF4605CC4F2020C4FF08043DCF8402099
:100668000F2142F001004FF47A72CCF8400019854E
:10067800DA62988981B241F001029A81B3F800C028
:100688001FFA8CF040F0810101221C2019809A8207
:1006980000F04AB841F23403C2F2000300221A60A3
:1006A800704700BF41F2340CC2F2000C4FF0804199
:1006B800DCF800204B6A4FF47A7000FB0230704778
:1006C80030B441F2340382B0C2F200034FF08042EA
:1006D80001901868516A019C4FF47A7505FB001166
:1006E8000C198C4205D91868516A05FB001C644531
:1006F800F9D802B030BC70474FF08040038A13F03D
:10070800010F06D041F23401C2F200010B685A1CF5
:100718000A604FF0804CBCF8103023F001010A0445
:10072800100CACF8100070474FF4614300F01F0143
:10073800CEF20003012212FA01F01860704700BFE0
:100748004FF4614300F01F01CEF20003012212FAB8
:1007580001F0C3F8800070472DE9F04F41F23804EA
:1007680083B00027C2F200043B460226042005217C
:1007780001222760A78000960197FFF789FE0521CF
:100788003A460420FFF7EAFE40F2DC50FFF798FFF4
:10079800052101220420FFF7E1FE3220FFF790FF38
:1007A80001253A46042005213B4600960195FFF7AE
:1007B8006FFEFFF76FFF04200521FFF7EDFE00280D
:1007C800F9D105210420FFF7E7FE0646FFF76AFF87
:1007D8004FF0FF3781460546804642F20F7A0420E3
:1007E8000521FFF7D9FE002E14BF002300F00103F6
:1007F800002814BF002606F001068346002B18BF08
:10080800A84686B1B7F1FF3F0CD0C7F3C700C8EBC5
:10081800050C215CBCF1320F84BF41F00101215469
:100828004A0022540137FFF73DFF282F054605DC13
:10083800C9EB000ED64501D85E46D0E794F800C053
:100848006578A178E278207905EB0C0303EB010EBB
:100858000EEB020C5FFA8CF1431A5A4242EB03008A
:1008680003B0BDE8F08F00BF41F23801C2F20001C9
:1008780008784B7843EA0020704700BF41F23802FD
:10088800C2F200029178D37843EA012000B270479F
:1008980030B441F2380CC2F2000C9CF801509CF8BC
:1008A80000409CF802109CF803209CF804C02B1907
:1008B80058188118CBB2C3EB0C02504240EB02002F
:1008C80030BC704741F23803C2F2000358781978F7
:1008D8009A78DB7800EB010C0CEB0201C818C0B267
:1008E800704700BF0346D0F1010038BF002000293F
:1008F80008BF40F0010010B4C8B91A78CAB15A1C30
:10090800134612F8014B013080B2002CF8D10A7856
:100918004AB11C4604F8012B11F8012F0130234677
:1009280080B2002AF6D100221A7010BC704700204D
:10093800FBE71046EBE700BF70B541F24004C2F296
:10094800000440F638510646C0F600012046FFF77D
:10095800C9FF314605462018FFF7C4FF421995B272
:1009680000216019FFF7BEFF05EB000C1FFA8CF59C
:1009780060190021FFF7B6FF2D18ADB2691C8BB2C4
:100988000D20002260551846E25470BD70B448B37B
:1009980042F23811C2F2000111F8F84C002C29D0AB
:1009A80040F63C55C0F60005F8392A782B46002653
:1009B80002E04C780136294694421D4614D113F8BA
:1009C800012F4D1C002AF4D12B7843B10246294649
:1009D80002F8013B11F8013F1046002BF8D1002323
:1009E8000370012070BC704706B19D1B4C78013123
:1009F800002CDAD12046F5E730B541F24003C2F2C7
:100A08000003ADF5805D1A7881B032B1013B002159
:100A180003F8011F58780028FAD142F23814C2F2BC
:100A2800000414F8F83C3BB1A4F1F903002103F8E1
:100A3800011F5A78002AFAD140F64050C0F600004B
:100A4800FFF77AFF014641F24000C2F20000FFF7CB
:100A5800C5FC44F24020C0F20F00FFF731FEFFF75B
:100A6800D1FCB0B9054606E0FFF7D6FC611901359F
:100A780001F8F80CADB2FFF7C5FC0028F4D0064821
:100A8800FFF79CFC6846FFF781FF01B00DF5805D1C
:100A980030BD0020F9E700BF4020002030B541F20A
:100AA8004003C2F20003ADF5805D1A7881B032B11F
:100AB800013B002103F8011F58780028FAD142F2BF
:100AC8003814C2F2000414F8F83C3BB1A4F1F9035D
:100AD800002103F8011F5A78002AFAD140F6445041
:100AE800C0F60000FFF728FF014641F24000C2F2BD
:100AF8000000FFF773FC44F24020C0F20F00FFF73C
:100B0800DFFDFFF77FFCB0B9054606E0FFF784FC80
:100B18006119013501F8F80CADB2FFF773FC002834
:100B2800F4D00648FFF74AFC6846FFF72FFF01B0EC
:100B38000DF5805D30BD0020F9E700BF40200020A2
:100B48004FF4605CC4F2020C0021DCF8003043F082
:100B58000102CCF80020CCF80810DCF8000043F2C1
:100B6800100220F0847323F48030C2F20042CCF8E3
:100B78000000CCF80420DCF800304FF46D42CEF2CF
:100B8800000223F480204FF00063CCF80000CCF87A
:100B98000C109360704700BF4FF46053C4F2020317
:100BA8009A6802F00C02042A04BF4FF49051C0F274
:100BB8007A0106D0082A1CBF4FF41051C0F2F40184
:100BC8000FD04FF46050C4F2020040F20403826870
:100BD800C2F20003C2F3031C13F80C00C1401961F0
:100BE800704758685A68596810F4800F4FF4605C71
:100BF80014BF4FF490534FF41053C4F2020C14BFB7
:100C0800C0F27A03C0F2F40302F03F02C1F3881085
:100C1800B3FBF2F1DCF80430C3F3014201FB00F14D
:100C2800501C4300B1FBF3F1CBE700BF500D0008A7
:100C380000000020180000201C0000204030002088
:100C4800002103E00B4B5B58435004310A480B4B1F
:100C580042189A42F6D30A4A02E0002342F8043BBB
:100C6800084B9A42F9D3FFF76BFF00F00FF8FFF734
:100C78009FFA7047500D000800000020180000205F
:100C88001C00002040300020FEE7000070B5002462
:100C98000C4D0D4E761BB61003E055F8043B01349D
:100CA8009847B442F9D3094D00F014F8084E0024CF
:100CB800761BB61003E055F8043B01349847B4425C
:100CC800F9D370BD480D0008480D0008480D00080C
:100CD8004C0D0008F8B500BFF8BC08BC9E4670472C
:0C0CE800F8B500BFF8BC08BC9E46704781
:100CF40001000000020000000400000008000000E1
:100D040010000000000002400004024000080240FD
:100D1400000C02400010024048656C6C6F20456D69
:100D240062656464656420576F726C64212E2E0DB5
:100D34000A00000041542B002B4F4B0045000000DB
:040D44005A00000051
:040D48009D01000801
:040D4C008901000811
:100D50000000000000000000000000000102030489
:080D6000060708090024F40055
:040D68000000000087
:0400000508000C499A
:00000001FF
