:020000040800F2
:100000001067012061440008694400086B4400083F
:100010006D4400086F4400087144000800000000AF
:100020000000000000000000000000007344000811
:1000300075440008000000007744000839150008E6
:100040007B4400087B4400087B4400087B44000894
:100050007B4400087B4400087B4400087B44000884
:100060007B4400087B4400087B4400087B44000874
:100070007B4400087B4400087B4400087B44000864
:100080007B4400087B4400087B4400087B44000854
:100090007B4400087B4400087B4400087B44000844
:1000A0007B4400087B4400087B4400087B44000834
:1000B0007B4400087B4400087B4400087B44000824
:1000C0007B4400087B4400087B4400087B44000814
:1000D0007B4400086D1600087B44000811130008DB
:1000E0007B4400087B4400087B4400087B440008F4
:1000F0007B4400087B4400087B4400087B440008E4
:100100007B4400087B4400087B4400087B440008D3
:100110007B4400087B4400087B4400087B440008C3
:100120007B4400087B4400087B4400087B440008B3
:100130007B4400087B4400087B4400087B440008A3
:100140007B4400087B4400087B4400087B44000893
:100150007B4400087B4400087B4400087B44000883
:100160007B4400087B4400087B4400087B44000873
:100170007B4400087B4400087B4400087B44000863
:100180007B4400087B440008DFF80CD004F028FB17
:1001900000480047771200081067012010B5A6A09C
:1001A00004F01EFDAAA004F01BFDAEA004F018FD93
:1001B000B0A004F015FDB3A004F012FDB4A004F04B
:1001C0000FFDB7A004F00CFDB9A004F009FDBDA01F
:1001D00004F006FDBFA004F003FDC2A004F000FD82
:1001E000C4A004F0FDFCC7A004F0FAFCC9A004F010
:1001F000F7FCCBA004F0F4FCCEA004F0F1FCD2A0FC
:1002000004F0EEFCD6A004F0EBFCDCA004F0E8FC6B
:10021000DFA004F0E5FCE2A004F0E2FCE8A004F0BA
:10022000DFFCEBA004F0DCFC83A004F0D9FC10BDE3
:100230002DE9F041A6B004460D460026EAA2D2E917
:1002400000109268CDE90B020A91002009900890F5
:100250000A27E849E8A004F0C3FC0DA9F4A004F0C3
:1002600073F98AA004F0BCFC0DA804F04EF918B193
:100270000DA9E04804F050F908A804F046F98046BA
:10028000002008A9CDE90317CDE9050509A80AA9A9
:10029000CDE901080091E74908780978491CE54B48
:1002A00019703346D34A214602F0FCFD26B0BDE862
:1002B000F0812DE9F041BCB004461822DEA136A839
:1002C00004F0EDF801252422E1A12DA804F0E7F8BF
:1002D0003C22E8A11EA804F0E2F83022F4A112A802
:1002E00004F0DDF82C22FEA107A804F0D8F81426AB
:1002F00012A804F00AF987B20020012112AACDE960
:100300000326CDE905101EA82DA9CDE9010700910E
:10031000C84908780978491CC64B19702B4636AA7B
:10032000214602F0BFFD4FF47A7001F0F4F807A8FF
:1003300004F0EBF88046BF4908780978491CBD4BAA
:100340001970002307AA414602F017FE00203CB0B6
:10035000BDE8F081F0B5C1B004464022EBA131A860
:1003600004F09DF801252422B9A10FA804F097F804
:100370001C22F6A108A804F092F80A26FAA19D48CA
:1003800004F0CAF89B499CA004F02AFC18A9A8A074
:1003900004F0DAF83DA004F023FC18A804F0B5F846
:1003A00018B118A9934804F0B7F831A9F2A004F0E5
:1003B00017FC18A99EA004F0C7F834A004F010FCA4
:1003C00018A804F0A2F818B118A931A804F0A4F8EC
:1003D00031A804F09AF80746002031AACDE904605C
:1003E0000392069008A80FA9CDE901070091914951
:1003F00008780978491C8F4B19702B467D4A214695
:1004000002F050FD41B0F0BDF0B5EBB004464FF442
:1004100080712BA804F05CF8012573A207CA0FAB0A
:1004200007C31C22C9A108A804F039F80A2671499B
:1004300071A004F0D5FBB7E12D2D2D2D2D2D2D2DE7
:100440002D2D2D2D2D2D2D2D2D2D2D2D2D0A0D004C
:10045000302047657420576946692073746174754C
:10046000730A0D00312057696669205363616E0A73
:100470000D000000322057696669204A6F696E0AD4
:100480000D00000033204765742049500A0D00001C
:10049000342054435020636C69656E740A0D00006B
:1004A00035205443502073657665720A0D000000B4
:1004B000362053656E642066726F6D20736F636BB8
:1004C0000A0D0000372057694669204C6561766542
:1004D0000A0D000038204150204F6E2F4F66660AEB
:1004E0000D000000392055445020636C69656E741E
:1004F0000A0D0000612055445020736572766572C4
:100500000A0D0000622057696669204F66660A0D71
:1005100000000000632057696669204F6E0A0D00D5
:1005200064204854545020676574207265710A0D28
:100530000000000065204854545020706F737420F0
:100540007265710A0D0000006620485454502070F6
:100550006F7374204A736F6E207265710A0D00000C
:10056000672048545450206368756E6B6564207032
:100570006F7374207265710A0D0000006820485482
:1005800054505320676574207265710A0D00000095
:100590006920544C5320636C69656E740A0D000029
:1005A0006A20544C53207365727665722028485433
:1005B00054505320736572766572290A0D0000004D
:1005C0006D3A2053686F77204D656E750A0D0000F7
:1005D000713A207072657373207120746F205175A9
:1005E0006974200A0D000000746578742F68746DBA
:1005F0006C000000D8000020456E746572205552D2
:10060000492061667465722074686520736572762E
:100610006572206E616D653A20285B43525D2074DF
:100620006F20616363657074202573290A0D0000D3
:10063000257300000A0000202F726573742F746800
:1006400065726D6F7374617447657454696D65008C
:100650006170706C69636174696F6E2F782D777744
:10066000772D666F726D2D75726C656E636F646544
:10067000640000004163636570743A2074657874A7
:100680002F68746D6C2C6170706C69636174696F34
:100690006E2F786D6C0D0A4163636570742D4C612B
:1006A0006E67756167653A20656E2D55530D0A00BA
:1006B0006D63755F73657269616C5F6E756D6265A0
:1006C000725F6865783D30303131323233333434E3
:1006D0003535363637373838393941410000000072
:1006E00026757365726E616D653D4D7955736572E2
:1006F0006E616D652670617373776F72643D4D79BD
:1007000050617373776F7264000000005061726112
:100710006D733D25374225323269662532322533E5
:1007200041253232737461253232253744266361A4
:100730006C6C6261636B3D6A736F6E70313336331C
:10074000333539393530353437000000416363655E
:1007500070742D4C616E67756167653A20656E2D0A
:1007600055530D0A000000002F7377732F776966C9
:10077000692F737461740000456E74657220636F35
:100780006E74656E7420746F20504F53543A202855
:100790005B43525D20746F20616363657074202534
:1007A00073290A0D0000000012A9AFF27C1003F0BB
:1007B000CBFEAFF2283004F013FA12A803F0A5FE26
:1007C00018B112A9FE4803F0A7FEFEA004F008FA33
:1007D0002BA9AFF2A41003F0B7FEAFF2503004F033
:1007E000FFF9F74803F091FE18B9FDA1F44803F0B2
:1007F00093FE2BA803F089FE074600202BAACDE923
:1008000004600392069008A80FA9CDE901070091A2
:10081000F64908780978491CF44B19702B46E84AC8
:10082000214602F03FFB6BB0F0BD70B5BEB0F049A1
:10083000F0A003F089FEAFF2AC3004F0D1F9EC483F
:100840000078712802D10120EB490870E84800784F
:1008500061287AD00ADCA0F130000A2876D2DFE8DD
:1008600000F0161F28495A90BCF6F5F462380C289F
:10087000F4D2DFE810F0720183018C0149026202B8
:1008800082029F02B90233036B006B006403D749F5
:1008900008780978491CD54B197001F0C6F852E365
:1008A000D24908780978491CD04B197001F051F9E8
:1008B00049E3CE4908780978491CCC4B197001F0FE
:1008C000C9FACA4908780978491CC84B197001F05F
:1008D0005BF9C64908780978491CC44B197001F0C6
:1008E000CAFAC24908780978491CC04B197001F04E
:1008F000E9FA28E3BD4908780978491CBB4B19700F
:1009000001F0B9FAB94908780978491CB74B197050
:1009100001F00CFB17E3FF20B8490870102000908D
:10092000B24803780078401CB04A1070FF2211468C
:10093000002001F03CFBB14890F90000401C1FD0A2
:1009400000F069FF401C06D101E0EAE0FAE2ACA049
:1009500004F046F9F7E2A5480078A4490978491C53
:10096000A24A11700521CDE90010AA4909888AB26E
:10097000A24908784FF48063A749096801F073FB26
:10098000E1E200F0A7FF401C03D1A4A004F028F985
:10099000D9E2FF209949087010200090934803780D
:1009A0000078401C914C2070A348008882B2A34874
:1009B0000168012001F0FBFA904890F90000401C0A
:1009C0000AD021460B780978491C21708B49087898
:1009D0000522802101F092FBB5E20020249098A02E
:1009E00004F0FEF822A9AFF2B83003F0ADFD00220A
:1009F000114622A803F025FE04469BA004F0F0F85F
:100A000024A9AFF2D43003F09FFD24A803F051FED7
:100A1000C6B2EEB1A1A004F0E3F802A9AFF2F03043
:100A200003F092FD02A803F070FD05466F480078C0
:100A30006E490978491C6D4A1170AAB20090E0B263
:100A4000022302A901F08CFB13E02DE023E011E06A
:100A50006648007865490978491C644A117000901D
:100A6000E0B202238022984901F07AFB00209749E6
:100A7000086068E25D4908780978491C5B4B197089
:100A800001F00FFA594908780978491C574B197039
:100A900001F0E0F957E2554908780978491C534BB1
:100AA000197001F01BF84EE2504803780078401CA2
:100AB0004E4A107000221146104601F036FC4F4895
:100AC00090F90000401C2BD000F035FF401C03D1F2
:100AD0004BA004F085F836E20A217DA004F080F8EE
:100AE000002411E02046E11704EB5161C911A4EB89
:100AF000C1114D1C2946744802F071F82A4621465E
:100B000076A004F06DF8641C0A2CEBDB374A1178F0
:100B10001278521C354D2A70384A107801F08AFA42
:100B200011E24AF6CB056F4C304803780078401C40
:100B30002E4A10702A462146012001F0F6FB2B4870
:100B400002780078401C294B18704FF400612B4844
:100B500090F9000001F082FCF5E124490878097859
:100B6000491C224B197001F09CF92049087809783A
:100B7000491C1E4B197000F0A0FFE4E11B490878E6
:100B80000978491C194B197000F080FFDBE15649C8
:100B900056A004F025F825A9AFF26C5003F0D4FC60
:100BA00024A004F01DF825A803F0AFFC18B125A976
:100BB0004D4803F0B1FC00214B48FFF739FBC2E17F
:100BC000D8000020456E74657220636F6E74656E88
:100BD0007420746F20504F53543A200A0D000000C7
:100BE0002F6164642E706870000000000A0000200D
:100BF0001400002025630000090000200B000020E5
:100C0000496E76616C6964205365727665720A0D6F
:100C1000000000006000002058000020496E76614E
:100C20006C69642053657276657220746F206372FC
:100C3000656174650A0D0000640000205C000020FE
:100C4000456E74657220736F636B6574206E756D8D
:100C500062657220746F2073656E642066726F6DBA
:100C60003A200A0D00000000436F6E74656E742018
:100C70004F7074696F6E3F2028303A20446566617A
:100C8000756C742020313A2055736572207370653D
:100C9000636966696329200A0D000000456E74656A
:100CA00072207061796C6F616420746F2073656E5F
:100CB000642028757020746F203132382062797476
:100CC0006573293A200A0D003C02002040000020F4
:100CD00053656E642025640A0D00000025642025FC
:100CE000640A0D0001001FACDC180020456E74651D
:100CF0007220736572766572206E616D653A202090
:100D000025730A0D00000000F449F5A003F068FF08
:100D100025A9AFF2E46003F017FCAFF2E80003F09E
:100D20005FFF25A803F0F1FB18B125A9EB4803F0FC
:100D3000F3FBEA48FFF768FB05E1F4A003F050FF7E
:100D4000FEA1E64803F0E8FBE449E5A003F048FF14
:100D500025A9AFF2247003F0F7FBAFF2281003F0DF
:100D60003FFF25A803F0D1FB18B125A9DB4803F00C
:100D7000D3FBDA48FFF7EEFAE5E0F3A1D74803F03A
:100D8000CBFBD649F44803F02BFF25A9AFF26070E6
:100D900003F0DAFBAFF2641003F022FF25A803F0A2
:100DA000B4FB18B125A9CD4803F0B6FBCB48FFF73B
:100DB00080FAC8E0C949CAA003F012FF25A9AFF222
:100DC000907003F0C1FBAFF2941003F009FF25A867
:100DD00003F09BFB18B125A9C04803F09DFB01213E
:100DE000BE48FFF725FAAEE00520DC490860FF2089
:100DF000DB4908701B200090DA4803780078401C1B
:100E0000D84A1070FF221146002001F0D0F84FF4AC
:100E1000FA7000F080FBD24890F90000401C5CD0D2
:100E2000D1A1D24803F078FB00F0F5FC401C04D1BE
:100E3000AFF2342003F0D4FE85E0CA480078C949F7
:100E40000978491CC74A1170C4490978CDE90010D6
:100E5000C74909888AB2C24908780023C549096888
:100E600001F001F913E04FF4FA7000F054FBBB48B5
:100E70000068401EB9490860BF480078B84991F938
:100E80000010884203D1FF20BB49087007E0BB482F
:100E90000078401C03D1B14800680028E3D100BFAE
:100EA000B6480078AE4991F90010884212D1AD4899
:100EB0000078AC490978491CAA4A1170A8490090E9
:100EC000087802233A22AEA101F04AF9FF20AB498B
:100ED000087002E0B9A003F083FE34E0A2A1A348A9
:100EE00003F01AFB00F0F6FC401C04D1AFF2D42052
:100EF00003F076FE27E0FF20994908701A20009041
:100F0000984803780078401C964C2070B0480088C0
:100F100082B2B0480168012001F049F8904890F988
:100F20000000401C0AD021460B780978491C21702A
:100F30008B4908780522802101F0E0F803E0FFF7F3
:100F40002DF900E000BF00BF3EB070BD2DE9F04FAD
:100F5000ABB0054642F2107700202A908246002668
:100F60002990834602AC681CC5B203208DF8A0000E
:100F70008DF8A1500023022228A9502002F083FA04
:100F8000681CC5B2022004F8010B04F8015B0FF2E3
:100F90004828404603F0B9FA0246414601902046EF
:100FA00003F07DFA404603F0B0FA0444002004F850
:100FB000010B0FF2302B584603F07BFB00F0FF0AC9
:100FC0000FF22429484603F0A0FAC6B204F801AB98
:100FD00004F8016B2EB132464946204603F05FFA11
:100FE000344402A8221A002302A9502002F04BFA2E
:100FF00042F210770EE000F010FD08B100F011FD94
:101000007D48007818B100207B49087006E0012077
:1010100000F081FA3800A7F10107ECD100BF0020F1
:101020002990681CC5B2002022908DF89C008DF894
:101030009D50BDF88800ADF89E000023042227A92A
:10104000702002F020FA681CC5B20B208DF88C00CD
:101050008DF88D5000208DF88E0001208DF88F00C6
:101060000023042223A9702002F00DFA42F2107727
:1010700007E000F0D2FC08B100F0D3FC012000F042
:101080004AFA3800A7F10107F3D1681CC5B22BB0AA
:10109000BDE8F08F00B587B00121042002F071FD9A
:1010A0000121880402F0A0FD07220A21534802F022
:1010B000A6FB07220B21514802F0A1FB00208DF86E
:1010C0001A0001208DF81B0002208DF81800400244
:1010D000059002208DF8190005A991E0DC18002088
:1010E000456E74657220736572766572206E616DEF
:1010F000653A20285B43525D20746F20616363650D
:101100007074202573290A0D000000004D616B6585
:1011100020737572652053544120697320636F6E8C
:101120006E656374656420746F20534E38323030BE
:1011300020736F66742041502E0A0D00736E383292
:1011400030302E636F6D00003139322E3136382E3B
:1011500031302E3130300000B8500008100000202F
:101160000B0000200A00002034343300440000202B
:1011700060000020580000200D0000200C0000201E
:10118000474554202F20485454502F312E310D0AFA
:10119000486F73743A203139322E3136382E322E60
:1011A0003132350D0A4163636570743A2074657895
:1011B000742F68746D6C0D0A0D0A0000436F6E6E1B
:1011C000656374206661696C65642E0A0D00000019
:1011D000640000205C0000204D61726C6F77204E2F
:1011E00065740000320000006672616E6B696574A0
:1011F0006865646F670000004D0000200008024031
:101200008D4802F071FA02208DF8180080020590D6
:1012100005A9894802F068FA4FF4E06002F084F909
:1012200027208DF8000000208DF8020001208DF8A5
:101230000300684602F07DF94FF4E1300190002090
:10124000ADF80800ADF80A00ADF80C00ADF81000DC
:101250000C20ADF80E0001A9784802F038FE0122FA
:1012600040F22551754802F070FF0121734802F0E9
:10127000B6FE07B000BD10B500F020F9FFF70AFF79
:101280004FF4612000F0C3FB6DA1724803F044F9F4
:1012900071A1744803F040F973A003F0A1FC78A099
:1012A00003F09EFC774908780978491C754B197042
:1012B00000F0ECFB72A003F093FC72480078FFF79B
:1012C00045FE70480078401D6E490870FEF766FFC5
:1012D0000DE06D48007808B1FFF7A7FA00F09DFB1C
:1012E00008B100F09EFB6948007800B100E0F0E72B
:1012F00000BF67A003F074FC002010BD6C480068BC
:101300006C490968884201D1012070470020FCE740
:1013100010B540F22551494802F052FF00283AD05A
:10132000464802F08BFEC4B20D2C12D07F2C22D185
:101330005F4800685F490968884209D05C480078C6
:10134000401EC0B25A4908607F213C4802F072FE3C
:1013500020E059485649096844540D21374802F0A5
:1013600069FE53480078401CC0B251490860012012
:10137000454908700EE050484D49096844542146DB
:101380002E4802F057FE4A480078401CC0B2484937
:10139000086000BF00BF10BD70B504460D46E1B245
:1013A000264802F047FE00BF4021244802F0F2FE2A
:1013B0000028F9D0204670BD00203D4909683D4A0B
:1013C000126891420AD03C493A4A1268885C39490D
:1013D0000978491CC9B2374A116002E000212A4A43
:1013E0001170704770B50546002400BF264800788C
:1013F0000028FBD000BF2E4800682E4909688842AB
:10140000F9D02D482B490968445C2A480078401CD3
:10141000C0B228490860264800680968884202D19D
:1014200000201949087000BF4021044802F0B2FEB4
:101430000028F9D0204670BD000802400048004056
:101440007777772E6D75726174612D77732E636F68
:101450006D000000DC1800202F696E6465782E682E
:10146000746D6C00D80000200A0D48656C6C6F2C00
:1014700020456D62656464656420576F726C6421F9
:101480000A0D00000A0000200800002009000020CA
:101490000A0D476F6F646279652C20456D62656443
:1014A00064656420576F726C64210A0D00000000AF
:1014B00004000020000000203C01002030B520483E
:1014C00000684FF47A72B0FBF2F1481EB0F1807FF1
:1014D00001D301201BE0481E4FF0E022506150175D
:1014E0000F22002807DA13071D0E164B00F00F0419
:1014F000241F1D5503E013071C0E134B1C5400BF83
:1015000000204FF0E022906107201061002008B118
:1015100000BFFEE730BD0D49086000BF0B490968F8
:101520000029FBD170470948006820B107480068CE
:10153000401E06490860704700B5FFF7F4FF00BD84
:10154000B400002018ED00E000E400E018000020E6
:1015500010B588B004460121022002F012FB0121DF
:10156000102002F052FB072206214B4802F047F9F7
:1015700007221146484802F042F900208DF81E006B
:1015800001208DF81F0002208DF81C0040200690DD
:1015900002208DF81D0006A93F4802F0A5F80220A0
:1015A0008DF81C008020069006A93B4802F09CF8AC
:1015B0004FF4E06001F0B8FF25208DF80400002012
:1015C0008DF8060001208DF8070001A801F0B1FF99
:1015D00002940020ADF80C00ADF80E00ADF810003C
:1015E000ADF814000C20ADF8120002A92B4802F04F
:1015F0006EFC012240F22551284802F0A6FD01218F
:10160000264802F0ECFC08B010BD70B505460E4649
:1016100000240BE0295D214802F00CFD00BF4021B1
:101620001E4802F0B7FD0028F9D0641CB442F1DB7B
:1016300070BD1B4800681B490968884201D1012020
:1016400070470020FCE7002015490968154A126818
:1016500091420AD01449134A1268885C11490988DA
:10166000491CC1F30B010F4A1160704710B540F2DD
:1016700025510A4802F0A4FD68B1084802F0DEFCDA
:101680000949074A1268885405480088401CC0F37D
:101690000B000349086010BD000402400010014027
:1016A000200000201C000020BC0200202DE9FF4784
:1016B000064688466F46347800BF02F0E3FE0068B5
:1016C000005D202803D0002004B0BDE8F08700258D
:1016D0004FF00A09302C0ED1701C06460478782C85
:1016E00001D0582C05D14FF01009701C0646047823
:1016F00001E04FF0080900BF02F0C4FE0068005D81
:10170000202807D1A4F1300005FB0905701C06460E
:101710000478F1E7B9F1100F1CD102F0B3FE0068B4
:1017200010F804A08AEA8A0010F0800F12D002F0AC
:10173000A9FE0068005D10F0080F01D0612100E0F3
:10174000412104F10A00401A40EA0515701C0646C2
:101750000478D1E700BF00BF2E2C09D103A887422F
:1017600001D30020B0E720C7701C06460478A4E728
:1017700000BF00BF44B102F085FE0068005D10F0BC
:10178000010F01D100209FE76846381A012101EBC3
:10179000A00005282AD2DFE800F00305060F1B0091
:1017A000002091E722E0B5F1807F01D300208BE794
:1017B000009845EA006519E0B5F5803F01D30020A7
:1017C00082E700980006019940EA014005430DE0D8
:1017D000FF2D01D9002077E700980006019940EA23
:1017E0000140029940EA0120054300BF00BFB8F163
:1017F000000F02D028BAC8F80000012064E738B50D
:10180000044669462046FFF751FF08B1009838BDED
:101810004FF0FF30FBE700B58BB0F84802F075FEE3
:1018200018B9F7A1F54802F077FEF94802F06DFE0D
:1018300018B9F8A1F64802F06FFEF8A003F0D0F94D
:1018400003A9FEA002F080FEFBA003F0C9F903A8E3
:1018500002F05BFE18B103A9E84802F05DFEE7481C
:10186000FFF7CDFFF649086008460068401C02D02B
:101870000846006818B94FF0FF300BB000BDF1A06A
:1018800003F0AEF901A9EDA002F05EFEEAA003F0BC
:10189000A7F901A802F039FE18B101A9DC4802F04D
:1018A0003BFE00221146DA4802F0CBFEED4908600B
:1018B0000846006800BA000C086008460068B0F5E9
:1018C000803F05DBE8A003F08BF94FF0FF30D4E751
:1018D0000020D2E71CB5ED48006828B9ECA003F061
:1018E0007FF94FF0FF301CBDE8480068F1490860FF
:1018F000F1A003F075F96946D0A002F025FECEA054
:1019000003F06EF900221146684602F09AFEF34990
:1019100008600846006800BA000C086008460068C5
:10192000B0F5803F05DBD0A003F05AF94FF0FF304F
:10193000D9E70020D7E700B58BB0B8A003F050F985
:1019400003A9BEA002F000FEBBA003F049F903A862
:10195000FFF755FFE249086008460068401C02D1C5
:10196000401E0BB000BDB7A003F03AF901A9B3A027
:1019700002F0EAFDB0A003F033F90022114601A8FD
:1019800002F05FFED74908600846006800BA000C04
:10199000086008460068B0F5803F05DBB2A003F0A0
:1019A0001FF94FF0FF30DCE70020DAE71CB5B7483D
:1019B000006828B9B6A003F013F94FF0FF301CBD42
:1019C000B2480068C8490860BBA003F009F969463D
:1019D0009AA002F0B9FD98A003F002F90022114686
:1019E000684602F02EFEC14908600846006800BA49
:1019F000000C086008460068B0F5803F05DB9AA03F
:101A000003F0EEF84FF0FF30D9E70020D7E710B52C
:101A10000446204601F02BFD10BD10B501F02DFD50
:101A200010BD10B501F048FD10BD38B504460420C6
:101A30008DF800008DF8014000208DF80200002391
:101A400003226946502001F01EFDA9A003F0C8F84A
:101A500042F21070AA4908600EE0FFF7DEFF08B1FD
:101A6000FFF7DFFFA748007818B10020A5490870EC
:101A70000AE00120FFF74FFDA14801680068401E01
:101A80009F4A10600029E8D100BF38BD38B5044630
:101A900000208DF800008DF8014055208DF80200DF
:101AA00053208DF80300002304226946502001F0E2
:101AB000EAFC95A003F094F838BD38B5044601203F
:101AC0008DF800008DF80140002302226946502065
:101AD00001F0D9FC8FA003F083F838BD38B5044677
:101AE0008F48007880F001008D49087007208DF83C
:101AF00000008DF80140084600788DF802000020B3
:101B00008DF80300002304226946502001F0BBFC3D
:101B100084A003F065F842F21070794908600EE085
:101B2000FFF77BFF08B1FFF77CFF8248007818B110
:101B30000020804908700AE00120FFF7ECFC7048A3
:101B400001680068401E6E4A10600029E8D100BF9D
:101B500038BD3EB5044605208DF800008DF80140E3
:101B60000020CDF80200CDF80600ADF80A000220F2
:101B70008DF8030000230C226946502001F083FCFD
:101B80006DA003F02DF83EBD70B5A2B00546002053
:101B9000019002AC022004F8010B04F8015B69A07B
:101BA00003F01EF86B4925A002F0CEFC22A003F042
:101BB00017F809E068A003F013F866491FA002F0C7
:101BC000C3FC1DA003F00CF8624802F09EFC002844
:101BD000F0D0604802F099FC064632465D49204646
:101BE00002F05DFC5B4802F090FC0444002004F825
:101BF000010B624802F0F4FF01A9C1E0BC12002011
:101C00003139322E3136382E31302E31303100001C
:101C1000440000203078363939300000456E746554
:101C2000722073657276657220495020746F20634C
:101C30006F6E6E6563743A200A0D00002573000014
:101C400058000020456E7465722073657276657267
:101C500020706F7274206E756D6265723A200A0D85
:101C60000000000060000020496E76616C6964200D
:101C7000706F72742C206D6178206C696D697420AE
:101C8000307846464646200A0D0000003C00002001
:101C90004950206164647265737320686173206EBB
:101CA0006F74206265656E206F627461696E656431
:101CB0002E0A0D005C000020456E7465722073656D
:101CC0007276657220706F7274206E756D626572C7
:101CD00020746F207365743A200A0D0064000020A0
:101CE00068000020700000206C00002074000020BC
:101CF0002D4765745374617475730A0D00000000FC
:101D0000240000204C0000202D576966694F6E0AA0
:101D10000D0000002D576966694F66660A0D0000C8
:101D2000310000202D4150207374617475730A0DC9
:101D3000000000004E0000202D5769666953636162
:101D40006E0A0D00456E74657220535349443A0A79
:101D50000D0000007C180020535349442063616E3D
:101D6000277420626520656D7074792E20456E742D
:101D7000657220535349443A0A0D0000345100085B
:101D8000AFF2481002F0E0FBAFF2541002F028FF6F
:101D900001A802F08EFCFA49087008460078C8B124
:101DA000F8A002F01DFFFD49AFF2701002F0CCFB6D
:101DB000AFF27C1002F014FFF84802F0A6FBF849DD
:101DC000087008460078002804DCF6A002F008FF3E
:101DD00022B070BDEA48007804F8010BF0480078A2
:101DE00004F8010BEE48007840B1ED480278EB4969
:101DF000204602F054FBEA480078044402A8221A64
:101E0000002302A9502001F03EFBEAA002F0E8FE08
:101E100042F21070EA4908600EE0FFF7FEFD08B1DB
:101E2000FFF7FFFDE748007818B10020E54908708A
:101E30000AE00120FFF76FFBE14801680068401EDF
:101E4000DF4A10600029E8D100BF0020DE490860A9
:101E500000BFBDE738B5044603208DF800008DF8BB
:101E60000140002302226946502001F00CFBD7A05C
:101E700002F0B6FE38BD1CB50446002000908DF877
:101E800004008DF80540BDF80000ADF80600002301
:101E9000042201A9702001F0F6FAD0A002F0A0FE01
:101EA0001CBD38B5044601208DF800008DF80140B6
:101EB000002302226946702001F0E5FACAA002F070
:101EC0008FFE38BD1FB504460B208DF800008DF83D
:101ED000014000208DF8020001208DF8030000234E
:101EE00004226946702001F0CEFAC3A002F078FE09
:101EF00042F21070B24908600EE0FFF78EFD08B1A3
:101F0000FFF78FFDC048007818B10020BE49087067
:101F10000AE00120FFF7FFFAA94801680068401EA7
:101F2000A74A10600029E8D100BF1FBD1CB50446B8
:101F30000020009009208DF804008DF80540B3A022
:101F400002F04EFE6946AFF20C3002F0FDFAA2A09C
:101F500002F046FE684602F0ACFBC0B28DF8060007
:101F60000023032201A9702001F08DFAB1A002F034
:101F700037FE42F21070924908600EE0FFF74DFD07
:101F800008B1FFF74EFDAF48007818B10020AD4909
:101F900008700AE00120FFF7BEFA8948016800686E
:101FA000401E874A10600029E8D100BF1CBDFFB564
:101FB00083B004460D461E460C9F8DF800708DF8C8
:101FC00001608DF8024064B1CDF80350BDF81400F3
:101FD000ADF80700002309226946702001F053FA8A
:101FE00005E0002303226946702001F04CFA96A018
:101FF00002F0F6FD42F21070714908600EE0FFF742
:102000000CFD08B1FFF70DFD9448007818B10020D1
:10201000924908700AE00120FFF77DFA68480168DC
:102020000068401E664A10600029E8D100BF002009
:1020300007B0F0BD38B504460D4603208DF800000A
:102040008DF801508DF8024000230322694670206C
:1020500001F019FA82A002F0C3FD214684A002F02B
:10206000BFFD002038BDFFB583B004460D46DDE955
:102070000C67BDF8180020B1BDF81800B0F5006F6E
:1020800002DD4FF40060069012208DF800008DF8FC
:1020900001708DF80240CDF80350BDF81400ADF882
:1020A0000700BDF8180000BA000C0690BDF8180033
:1020B000ADF809008DF80B6000230C2269467020F2
:1020C00001F0E1F96FA002F08BFD4FF47A70FFF799
:1020D00022FA0EE0FFF7A1FC08B1FFF7A2FC6F485F
:1020E000007818B100206D49087003E00120FFF767
:1020F00012FAEFE700BF002007B0F0BD7FB582B055
:10210000054614461E46BDF80C0020B1BDF80C0073
:10211000B0F5006F02DD4FF4006003900CB1042CA9
:1021200000DD042411208DF800008DF801608DF889
:102130000250BDF80C0000BA000C0390BDF80C0072
:10214000ADF803008DF80540002306226946702093
:1021500001F099F952A002F043FD002006B070BDD5
:102160002DE9F041ADF5016D05460E461446984641
:10217000DDF8287814B1B4F5006F00DD9CE09DE037
:1021800030000020456E7465722053656375726976
:102190007479204B65793A0A0D0000009C180020E4
:1021A00032000020496E76616C6964204B65790AC3
:1021B0000D0000002D576966694A6F696E0A0D00AF
:1021C000240000204D000020340000202D576966B7
:1021D00069446973636F6E6E0A0D00002D536E695A
:1021E00063496E69740A0D002D536E6963436C6513
:1021F000616E75700A0D00002D536E69634950437E
:102200006F6E6669670A0D004F0000200A0D496E67
:102210007465726661636520547970653F2028306B
:102220003A205354412020313A20415029200A0DB0
:10223000000000002D536E69634765744468637045
:102240000A0D0000500000202D7463704372656118
:102250007465536F636B65740A0D000054000020B1
:102260002D636C6F7365536F636B65740A0D0000AB
:10227000536F636B657420256420636C6F736564B2
:102280000A0D00002D746370436F6E6E65637454A5
:102290006F5365727665720A0D00000051000020D0
:1022A0002D746370437265617465436F6E6E656310
:1022B00074696F6E0A0D00004FF4006402208DF8FF
:1022C00008008DF809708DF80A5000208DF80B0079
:1022D00020BA000C0190BDF80400ADF80C002246B5
:1022E00031460DF10E0002F0DAF8A21D002302A91A
:1022F000702001F0C8F8FEA002F072FC0EE0FFF7BB
:102300008CFB08B1FFF78DFBFD48007818B1002069
:10231000FB49087003E00120FFF7FDF8EFE700BF7D
:1023200000200DF5016DBDE8F0812DE9FF41044667
:102330000D4617461E4613208DF804008DF80560E3
:102340008DF806408CB195FA85F838BA000C0090EB
:10235000CDF80780BDF80000ADF80B00002309227E
:1023600001A9702001F08FF805E00023032201A9E4
:10237000702001F088F8E3A002F032FC0EE0FFF7D5
:102380004CFB08B1FFF74DFBE348007818B1002083
:10239000E149087003E00120FFF7BDF8EFE700BF57
:1023A000002004B0BDE8F0812DE9FF43ADF6140D27
:1023B000054616461F46DDF84898DDF84088DDF8EA
:1023C000444814B1B4F5006F01DD4FF400641620E9
:1023D0008DF808008DF80990CDF80A50BDF818085E
:1023E000ADF80E008DF810608DF8117020BA000C59
:1023F0000190BDF80400ADF812002246414605A840
:1024000002F04DF804F10C02002302A9702001F043
:102410003AF8C2A002F0E4FB42F21070C44908602E
:102420000EE0FFF7FAFA08B1FFF7FBFAC1480078AF
:1024300018B10020BF4908700AE00120FFF76BF8CF
:10244000BB4801680068401EB94A10600029E8D105
:1024500000BF00200DF6240DBDE8F083FEB5054653
:102460000C46164614B1B4F5006F01DD4FF400645C
:1024700020BA000C009014208DF804008DF805603F
:10248000E8B28DF80600BDF80000ADF807000023A3
:10249000052201A9702000F0F6FFA7A002F0A0FB22
:1024A0000020FEBD2DE9F04F87B00446207806904D
:1024B000069882283ED004DC10285CD0112871D107
:1024C00067E0842802D08728F9D140E001209E49A6
:1024D0000870A07818B99DA002F082FB29E01421B1
:1024E00001A801F0F5FF002500BF09E0E91C625CCE
:1024F00001A9032303FB051097A102F081FB6D1CCA
:10250000062DF3DB01A802F000F8401E01A900220D
:102510000A5493A002F064FBA078012803D196A08E
:1025200002F05EFB04E004F109019AA002F058FBFE
:1025300000BFB6E001209C490870A07818B99BA0A4
:1025400002F04EFB02E09DA002F04AFBA9E0012050
:102550009D490870A07850B99C48007818B19CA09B
:1025600002F03EFB06E09DA002F03AFB02E09EA0D6
:1025700002F036FB95E0E078102806D19FA002F02B
:102580002FFB0120A149086002E0A1A002F028FB76
:1025900087E094F8028003252027B8F1000F2ED1A0
:1025A00000261CE07CE006EB46009D4901EB001094
:1025B0008068009006EB46008C460CEB00104368E8
:1025C00006EB46000CEB0010026806EB46000CEB35
:1025D000001000F10C0193A002F002FB761C9B4856
:1025E00000788642DFDB9948007800EB400001016B
:1025F0008B4801F06DFF0020944908704FE048E0DF
:1026000028466D1C14F8009028466D1C14F800B084
:1026100028466D1C14F800A0AD1D6D1CAD1C601982
:1026200001F073FFC7B2202F00DD37E06119874A40
:10263000127802EB42027A4B03EB021202F10C0019
:1026400001F06AFF8148007800EB4000744901EB1B
:102650000010C0F800907D48007800EB400001EBCE
:102660000010C0F804B07948007800EB400001EB9E
:102670000010C0F808A02FB900E06D1C605D0028B4
:10268000FBD001E0781C054470480078401C6F497D
:1026900008705FEA0800A8F10108B1D100BF00E0AE
:1026A00000BF00BF2BA002F09BFA07B0BDE8F08F7F
:1026B0002DE9F04F87B0044694F800804046B8F109
:1026C000900F0CD00CDC25280BD00BDC20280AD076
:1026D000212809D0222808D0232807D1D2E1FEE002
:1026E000BFE054E2B4E023E1BEE14DE12BE10000A4
:1026F0002D73656E6446726F6D536F636B0A0D00C8
:10270000520000202D756470437265617465536FCB
:10271000636B65740A0D0000540000202D75647011
:1027200053656E6446726F6D536F636B0A0D0000E4
:1027300024000020780000202D75647053746172AD
:1027400074526563760A0D004C0000205769466993
:10275000204F66662E0A0D00253032583A000000E0
:1027600057694669204F6E2E20204D61633A20251F
:10277000732E2020000000004E6F74206A6F696E77
:10278000656420616E79206E6574776F726B2E0AB6
:102790000D0000004A6F696E656420535349443A46
:1027A0002025730A0D0000004D0000204A6F696E5D
:1027B00020737563636573730A0D00004A6F696E59
:1027C000206661696C0A0D004E0000203100002077
:1027D0004150206973204F4E0A0D0000415020697E
:1027E00073204F46460A0D00415020636F6E74728D
:1027F0006F6C206661696C0A0D0000004E6574778D
:102800006F726B2055500A0D00000000340000204C
:102810004E6574776F726B20446F776E0A0D0000FF
:10282000DC120020535349443A20253230732043B0
:10283000483A2025326420525353493A20253364C4
:10284000205365633A2025640A0D0000280000200B
:10285000822877D083280FD089282AD08B2872D15C
:1028600014E091380B286ED2DFE800F05C503C6D2C
:102870006DFDFCFBFA3A3B00A07818B1E7A002F02E
:10288000AFF902E0EBA002F0ABF9A0E10120ED49C5
:1028900008700020EC490860A07830B9EBA002F085
:1028A0009FF90120E849086002E0ECA002F098F9E5
:1028B0008DE10120ED490870A07860B9207B00907F
:1028C000E37AA27A617AEAA002F08AF9F048D4F8B1
:1028D0000910016002E0EFA002F082F977E100BF89
:1028E00000BF00BF0120F0490870A07850B9E0781F
:1028F00040B2EE490870084690F90010ECA002F0D2
:102900006FF902E0EFA002F06BF960E10120F449F9
:102910000870A078182804D0A07810B1F1A002F0B7
:102920005FF954E1A07810B1F5A002F059F94EE139
:10293000A078122808D1FAA002F052F9E078FE49F6
:1029400008700BE00BE041E1A0780B2806D1E1789C
:10295000FAA002F045F9E078FD49087037E101205E
:10296000FC490870A07870B9FB480068401CFA491F
:1029700008602079E17840EA01252A46F648016896
:10298000F6A002F02DF922E100252079E17840EA55
:102990000126A7783A463146F7A002F021F90A202D
:1029A000FEF7B9FD0522FDA1601D01F0BEFD28B1B5
:1029B0000622FCA1601D01F0B8FDA0BB0020FB4970
:1029C00008600BE0F9480068401D215CF8A002F0A7
:1029D00007F9F6480068401CF4490860F3480068AD
:1029E000B042EFD30020F149086008460268006851
:1029F000401C0B46EF491860EF4802F001F9EE4821
:102A000001F083FD1FFA80F9EC480078EB49097862
:102A1000491CEA4A11700090F8B202234A46E6497E
:102A2000FFF79EFB1BE0FFE70722E5A1601D01F019
:102A30007CFDA0B9002505E0681D215CDCA002F04A
:102A4000CFF86D1CB542F7D3DC4A11781278521CCE
:102A5000DFF868C38CF80020F8B2FFF7EBFAB6E0B5
:102A60002BE02BE028E01BE0A578E0790090A3792B
:102A700062792179D4A002F0B3F8E178DCA002F009
:102A8000AFF8A4E0B4F8090000BA020CDE4801680F
:102A90000068401CDC4D2860DCA002F0A1F896E044
:102AA0000120DC490870A07810B1DBA002F098F892
:102AB0000120DD4908708AE000BF00BF0FF21C2929
:102AC000A08885B2002705F4004A002004900590F4
:102AD000069094F801B0B4F9026030BA000C06B266
:102AE00028BA050CB8F1980F03D1D0A104A801F0C1
:102AF00013FDC5F30E05642E06DB04F106094846F6
:102B000001F003FD401C07B2642E06DA5B46324634
:102B100004A9C8A002F064F859E0BAF1000F01D08E
:102B2000CDA000E0CDA05B46324604A9CDE9005916
:102B30000290A048883002F053F80020C84908608D
:102B400027B3C8A1484601F0CEFC98B9C7A14846B2
:102B500001F0C9FC70B9C6A1484601F0C4FC48B9EF
:102B6000C6A1484601F0BFFC20B9C6A1484601F005
:102B7000BAFC58B10120BA4908600021B81D2844A8
:102B80002154A01DC119C1A002F02AF81FE06678E7
:102B9000608885B228BA050C05F40047C5F30E0518
:102BA0000FB1ADA000E0ADA003462A4631468148F2
:102BB000D83002F015F8AA48006830B10021281D6D
:102BC0002154211DB1A002F00BF800E000BF00BFAE
:102BD000AFF2804002F004F807B0BDE8F08FFEB518
:102BE00004460D46AD480668AD48008887B200200F
:102BF0008D4908707148007870490978491C6F4AFE
:102C00001170A9B2CDE90041029028480278002352
:102C100039463046FFF7C8FBFEBD0000436C6F73BA
:102C20006520736F636B6574206661696C65640A07
:102C30000D000000536F636B657420636C6F7365E8
:102C4000640A0D004F000020380000204950436FF7
:102C50006E666967204F4B0A0D0000004950436FB4
:102C60006E666967206661696C0A0D00500000207D
:102C700049502061737369676E6564206173202514
:102C8000692E25692E25692E2569200A0D00000070
:102C90003C0000204950206E6F7420617373696797
:102CA0006E65640A0D000000540000200B00002037
:102CB000536F636B6574202564206F70656E656467
:102CC0000A0D0000536F636B657420637265617455
:102CD000696F6E206661696C65640A0D0000000012
:102CE00051000020556E61626C6520746F20636F27
:102CF0006E6E656374207365727665720A0D0000EE
:102D0000556E61626C6520746F20637265617465D5
:102D100020544350207365727665720A0D000000DE
:102D2000536F636B657420636F6E6E656374696F58
:102D30006E2055500A0D00000C000020536F636B8D
:102D4000657420256920636C6F7365640A0D00004B
:102D50000D0000205200002040000020706B742005
:102D600025642C2025642062797465732073656E58
:102D700074200A0D000000002564206279746573D8
:102D80002072656365697665642066726F6D207375
:102D90006F636B6574202564200A0D00474554203D
:102DA0002F000000504F5354202F000084000020BB
:102DB0002563000090510008401900200A000020FF
:102DC000485454502F312E0041636365707465641C
:102DD00020636F6E6E656374696F6E2066726F6DCF
:102DE0002025692E25692E25692E25690A0D0000EA
:102DF000436F6E6E656374696F6E20736F636B658E
:102E0000743A2025640A0D007C00002025642025EA
:102E1000640A0D00530000205544502053656E6431
:102E2000206261640A0D0000780000206D6F7265F9
:102E3000200000000A48545450202573525350205B
:102E4000636F64653A2025642C20736571233A20F2
:102E500025640A0D00000000796573006E6F0000A4
:102E6000800000207465787400000000786D6C00AC
:102E70006A617661736372697074000068746D6C66
:102E8000000000006A736F6E00000000436F6E74F4
:102E9000656E743A200A25730A0D00006800002050
:102EA000700000202DE9F04FADF2044D06460F46AC
:102EB00091469846DDF838A4DDF830540024DDF85A
:102EC0003C0410B145F4004000E028461FFA80FBA6
:102ED0004FF4806101A801F0FBFA17208DF804007F
:102EE0008DF805604FF4A040ADF806008DF808801D
:102EF0008DF809A0DDF8400430B119208DF80400E8
:102F00004BF60130ADF806000DF10A043A4633A144
:102F1000204601F075FE401C04444A462FA120467D
:102F200001F06EFE401C04442CA12046DDF828244C
:102F300001F066FE401C044428A12046DDF82C2444
:102F400001F05EFE401C04449BFA8BF0000C2080D4
:102F5000A41C2DB12A462046DDF8341401F09FFA56
:102F600001A8201A4219002301A9702000F08BFA51
:102F700000200DF2044DBDE8F08F2DE9F041ADF5D4
:102F8000806D05460C4616461F4617B144F40040B6
:102F900000E020461FFA80F818208DF800008DF818
:102FA000015098FA88F0000CADF80200201DB0F531
:102FB000806F05D94FF0FF300DF5806DBDE8F081D1
:102FC0002246314601A801F06AFA0023221D694613
:102FD000702000F058FA0020EEE700002573000092
:102FE00010B50446F74801680068401CF54A1060B7
:102FF000F5484454042C04D010460068B0F5805FB6
:103000000CDBF0480168F048FEF7FFFAED48016874
:10301000ED4801F05DFA0020EA490860204610BD45
:103020002DE9F04107460E460025A8461DE016F89A
:10303000014B022C09D0042C07D0102C05D02046BF
:10304000FFF7CEFF2819C5B20DE01020FFF7C8FF2B
:1030500044F08000FFF7C4FF05F11000C5B244F052
:1030600080002844C5B208F10108B845DFDB2846D6
:10307000BDE8F08130B503460A46002000240BE08D
:1030800012F8011B022903D0042901D0102901D113
:10309000801C00E0401C641C9C42F1DB30BD2DE92B
:1030A000F0470746884691469A46089D00248026A8
:1030B0000220FFF795FFE9B241F08000FFF790FF93
:1030C00045F080002044C4B246EA8A10C6B27F2D83
:1030D00002DD46EAE510C6B246F080002044C4B2E4
:1030E00046F08000FFF77CFF47F08000FFF778FF95
:1030F00047F080002044C4B249464046FFF790FFA5
:103100002044C4B244F080042046FFF769FF042045
:10311000FFF766FF0020BDE8F08770B501464FF06D
:10312000FF32AA480078082873D2DFE800F00414C0
:103130002C5A7377C2E602290BD100BF0120A34BA2
:1031400018700020A24B1860A24B1870A24B186098
:1031500000E00A461FE111F0800F00D114E10220C7
:103160009A4B187001F07F039C48006840F2E934E4
:1031700060439B4C04EBC0004380964800780844B1
:10318000944B187007E111F0800F00D1FCE0032090
:103190008E4B18709148006840F2E9335843904BC9
:1031A00003EBC000408801F03F0340EAC3138B48A3
:1031B000006840F2E9346043894C04EBC00043806E
:1031C000C1F380138548006840F2E9346043844CC1
:1031D00004EBC00003717F48007808447D4B1870F1
:1031E000D9E011F0800F00D1CEE00420774B1870A9
:1031F00001F07F037948006840F2E9346043784C7D
:1032000004EBC0004371734800780844714B187098
:10321000C1E0B8E005206D4B187000BF6C48006835
:10322000401C6B4B1860022900D1ADE0042903D18A
:103230000020664B18703BE0102908D10620634B34
:103240001870644800780844624B187030E0634896
:10325000006840F2E9335843614B03EBC0004088FB
:103260005B4B1B6898420EDA0720584B18705B487E
:10327000006840F2E9335843594B03EBC00041F674
:103280004673C15414E0534800780844514B1870F9
:103290005248006840F2E9335843514B03EBC000F9
:1032A000801D4D4B1C681B685B1C4B4D2B600155F2
:1032B00071E047480068401C454B18607F291ADDC3
:1032C000444800780844434B187001F07F04434899
:1032D000006840F2E9335843414B03EBC000801DC6
:1032E0003D4B1D681B685B1C3B4E336044550520FD
:1032F000364B187000E047E04DE004293FD13748D5
:10330000006840F2E9335843354B03EBC00041F607
:103310004673C05C00F07F002E4B1B7803F07F03E8
:1033200098422CD12C48008883B22C48006840F287
:10333000E93460432A4C04EBC00043800123274852
:10334000006840F2E9346043254C04EBC00041F6CC
:10335000477403552148006840F2E9346043204C2B
:1033600004F830301D480068401C0A2390FBF3F439
:1033700003FB1400194B18600020144B1870002038
:10338000124B187007E000BF0020104B1870022984
:1033900000D1D3E600BF00BF501C01D0104670BD65
:1033A0004FF0FF30FBE770B504460E461546502C33
:1033B00002D0702C1BD115E031462846FFF772F879
:1033C00016E0000090000020401A00209400002029
:1033D00098000020A00000209C0000208800002011
:1033E000402A002031462846FFF762F900E000BF7E
:1033F00000BF002070BD49480068494909688842FB
:1034000001D1012070470020FCE770B5044640F26E
:10341000E9306043434901EBC00040797F2824D064
:1034200040F2E930604301EBC0004079E8B140F27E
:10343000E930604301EBC00041F64771405CA0B148
:1034400040F2E9336343374D05EBC3039A1D40F265
:10345000E933634305EBC303598840F2E93363431F
:1034600005EBC3035879FFF79EFF002070BD10B530
:1034700004462046FEF76CF810BD10B5FEF7D9F8EB
:1034800080F0010010BD2DE9F84307460D461446B3
:103490009846B4F5FA5F02DD0020BDE8F8832946BE
:1034A0002046FFF7E7FD064643462A4621463846B2
:1034B0000096FFF7F4FDF0E710B505E0FEF7C3F85E
:1034C00004462046FFF729FEFEF7B3F80028F5D0A2
:1034D0001FE01248006840F2E9314843114911F8F1
:1034E000300060B10D480068FFF78FFF00210B48E6
:1034F000006840F2E93250430A4A02F830100748A7
:103500000068401C0A2190FBF1F201FB1200034904
:103510000860FFF770FF0028DBD010BD8C00002092
:1035200088000020402A002033490143334A1160BB
:10353000704770B5002100230F22C47824B32F4CAC
:10354000246804F4E064C4F5E064C4F30721C1F125
:103550000404E3B20A4144789C40E1B28478144008
:1035600021430C07210E264C05786155047804F0A0
:103570001F050124AC4005786D114FF0E02606EBE5
:103580008505C5F8004109E0047804F01F04012511
:10359000A5401C4C0678761144F8265070BD1A4A96
:1035A0000A400243154B1B1F1A60704739B1134A7A
:1035B000121D12680243114B1B1D1A6006E00F4AD0
:1035C000121D126882430D4B1B1D1A6070470428A0
:1035D00008D14FF0E021096941F004014FF0E022E9
:1035E000116107E04FF0E021096921F004014FF07B
:1035F000E0221161704700000000FA050CED00E0C8
:1036000000E400E080E100E080FFFF1F10B5044609
:103610008C48844208D10121084600F007FB0021B4
:10362000012000F003FB5EE08748844208D10121BD
:10363000022000F0FBFA0021022000F0F7FA52E02D
:103640008248844208D10121042000F0EFFA0021D1
:10365000042000F0EBFA46E07D48844208D10121C5
:10366000082000F0E3FA0021082000F0DFFA3AE039
:103670007848844208D10121102000F0D7FA0021B7
:10368000102000F0D3FA2EE07348844208D10121C3
:10369000202000F0CBFA0021202000F0C7FA22E021
:1036A0006E48844208D10121402000F0BFFA002179
:1036B000402000F0BBFA16E06948844208D101219D
:1036C000802000F0B3FA0021802000F0AFFA0AE079
:1036D0006448844207D10121801500F0A7FA002137
:1036E000A01500F0A3FA10BDF0B50A460021002392
:1036F000002400BF3DE0012505FA01F3156805EA45
:1037000003049C4234D105684F000326BE40B543F4
:10371000056015794E00B54006683543056015799A
:10372000012D02D01579022D16D185684F00032690
:10373000BE40B543856055794E00B5408668354337
:103740008560456801268E40B54345604568967999
:103750008E40B6B235434560C5684F000326BE4073
:10376000B543C560D5794E00B540C6683543C560E0
:10377000491C1029BFD3F0BD4FF6FF710160002135
:10378000017141718171C171704708B54FF4803288
:103790000092009A0A430092009AC261C161009AA5
:1037A000C261C2690092C269009208BD024600204F
:1037B00013690B4201D0012000E000207047014650
:1037C000086980B270470246002053690B4201D05D
:1037D000012000E0002070470146486980B2704730
:1037E00001837047418370470AB1018300E0418340
:1037F00070474161704742694A4042617047F0B585
:10380000002300244D07ED0E02FA05F3CE1000F15F
:10381000200555F826504E07F70E0F26BE40B5433B
:10382000CF1000F1200646F82750CE1000F12005F9
:1038300055F8265045EA0304CE1000F1200545F85E
:103840002640F0BD00000240000402400008024093
:10385000000C024000100240001402400018024018
:10386000001C024000200240F948006840F00100BE
:10387000F74908600020F64908310860F4480068FC
:10388000F4490840F2490860F348091D0860F3480C
:10389000EF4984310860EE48006820F48020EC494C
:1038A00008600020EA490C31086070470021E84AAE
:1038B000921C117011460870704710B50146002225
:1038C000002300204A11012A02D1E14C236808E0BC
:1038D000022A03D1DE4C7034236802E0DC4C7434DD
:1038E000236801F01F02012494401C4201D00120F2
:1038F00000E0002010BD38B5002000900024002515
:1039000000BF3120FFF7D9FF05460098401C00900A
:103910000098B0F5A06F01D0002DF2D03120FFF754
:10392000CCFF08B1012400E00024204638BD014648
:103930000020C74A106820F0F80040EAC10010607B
:103940007047C749086070470021C14A7032117042
:103950001170012802D004280AD104E00121BC4AD8
:103960007032117005E00521B94A7032117000E023
:1039700000BF00BF7047BB490860704770B5049C2A
:1039800041EA82150126C6EB530645EA0645054382
:1039900045EA0465AE4E361D356070BDB049086617
:1039A0007047820142EA0172A94B84331A60704762
:1039B000AB4988667047AA49C86470470246002030
:1039C000A34B0833186820F0EC6042EA0103184367
:1039D0009F4B083318607047024600209C4B083309
:1039E000186820F0784042EA01031843984B0833E6
:1039F0001860704701460020954A0832106820F090
:103A0000030008431060704791480830006800F0D8
:103A10000C007047014600208D4A0832106820F0E3
:103A2000F00008431060704701460020884A0832C1
:103A3000106820F4E05008431060704701460020F1
:103A4000834A0832106820F4604040EAC1001060E8
:103A50007047F0B500210022002402250026022331
:103A60007B4F08373F6807F00C0121B1042905D0CE
:103A7000082937D105E07C4F076036E07B4F0760AF
:103A800033E0734F3F1D3F68C7F38056704F3F1DB3
:103A90003F6807F03F036EB1744FB7FBF3F7DFF8F1
:103AA000B0C10CF1040CDCF800C0CCF3881C07FB9F
:103AB0000CF40CE06C4FB7FBF3F7DFF894C10CF19A
:103AC000040CDCF800C0CCF3881C07FB0CF4604F3E
:103AD0003F1D3F68C7F301477F1C7D00B4FBF5F72E
:103AE000076002E0604F076000BF00BF584F083713
:103AF0003F6807F0F00109095D4F7A5C0768D7401D
:103B00004760534F08373F6807F4E051890A584F20
:103B10007A5C4768D74087604D4F08373F6807F4A5
:103B20006041490B524F7A5C4768D740C760F0BD8F
:103B3000002100F44072B2F5407F0AD1444A0832B5
:103B4000116821F4F8114B4A02401143404A0832EF
:103B500011603F4A70321268C0F30B031A433C4BAA
:103B600070331A6070473F494439086070473D49D7
:103B70004039086070474049086070473F49086015
:103B8000704739B1324A303212680243304B303319
:103B90001A6006E02E4A3032126882432C4B3033D2
:103BA0001A60704739B12A4A343212680243284BEE
:103BB00034331A6006E0264A343212688243244BBA
:103BC00034331A60704739B1214A383212680243DF
:103BD0001F4B38331A6006E01D4A383212688243A0
:103BE0001B4B38331A60704739B1194A403212689A
:103BF0000243174B40331A6006E0154A4032126800
:103C00008243134B40331A60704739B1104A443233
:103C1000126802430E4B44331A6006E00C4A4432E9
:103C2000126882430A4B44331A60704739B1084A1C
:103C3000103212680243064B10331A6006E0044A41
:103C4000103212688243024B10331A607047000032
:103C500000380240FFFFF6FA103000240030002048
:103C600000004742800E47420024F40000127A0010
:103C7000A1000020FFFCFF0F5C014742E01147421A
:103C800029B15E4A126802435C4B1A6004E05B4A49
:103C900012688243594B1A60704739B1574A121D56
:103CA00012680243554B1B1D1A6006E0534A121D51
:103CB00012688243514B1B1D1A60704739B14F4A3D
:103CC0000C32126802434D4B0C331A6006E04B4A2B
:103CD0000C3212688243494B0C331A60704739B179
:103CE000464A103212680243444B10331A6006E011
:103CF000424A103212688243404B10331A607047B8
:103D000039B13E4A3C32126802433C4B3C331A60A4
:103D100006E03A4A3C3212688243384B3C331A6020
:103D2000704739B1354A403212680243334B403351
:103D30001A6006E0314A4032126882432F4B40330A
:103D40001A60704739B12D4A4432126802432B4B36
:103D500044331A6006E0294A443212688243274BF2
:103D600044331A60704739B1244A4C321268024316
:103D7000224B4C331A6006E0204A4C3212688243D0
:103D80001E4B4C331A60704739B11C4A50321268CE
:103D900002431A4B50331A6006E0184A5032126838
:103DA0008243164B50331A60704739B1134AD21F01
:103DB00012780243114BDB1F1A7006E00F4AD21F24
:103DC000127882430D4BDB1F1A7070470B4860302E
:103DD000006840F080700949603108607047014612
:103DE0000020064A083A12680A4201D0012000E089
:103DF000002070470149891F08707047143802403D
:103E000010B50446FA48844208D101211020FFF77A
:103E100066FF00211020FFF762FF57E0F54884425B
:103E200009D101214804FFF749FF00214FF4003078
:103E3000FFF744FF4AE0F048844209D10121880499
:103E4000FFF73CFF00214FF48020FFF737FF3DE0F4
:103E5000EA48844209D10121C804FFF72FFF00215D
:103E60004FF40020FFF72AFF30E0E548844209D1F3
:103E700001210805FFF722FF00214FF48010FFF712
:103E80001DFF23E0DF48844208D101212020FFF7F5
:103E900026FF00212020FFF722FF17E0DA488442A6
:103EA00009D101218807FFF709FF00214FF0804069
:103EB000FFF704FF0AE0D548844207D101214005FD
:103EC000FFF7FCFE00216005FFF7F8FE10BD2DE9AD
:103ED000FF4705460E460024A14600BFA046B08914
:103EE00000B100BF2C8A24F44054F08804432C8293
:103EF000AC8941F20C608443B088318908437189F0
:103F000008430443AC81AC8A24F44074B089044370
:103F1000AC826846FFF79DFDB548854202D0B9489E
:103F2000854202D1DDF80C9001E0DDF80890A88907
:103F300010F4004F08D009EBC90000EB09103168FC
:103F40004900B0FBF1F707E009EBC90000EB0910ED
:103F500031688900B0FBF1F76420B7FBF0F0040191
:103F60002009642101FB1078A88910F4004F08D0C3
:103F7000322000EBC800B0FBF1F000F00700044372
:103F800008E0322000EB08106421B0FBF1F000F0F3
:103F90000F0004432C81BDE8FF874FF416510160E8
:103FA00000218180C18001810C214181002181811A
:103FB000704710B502460020108A20F470600B880C
:103FC0004C8823438C882343CC8823431843108296
:103FD00010BD0021018041808180C180704721B1E6
:103FE000828942F40052828104E082894DF6FF7397
:103FF0001A4082817047028B02F47F420283028B57
:104000000A430283704721B1828942F400428281CF
:1040100003E08289C2F30E028281704721B1828A55
:1040200042F40062828204E0828A4FF2FF731A40F7
:1040300082827047C1F308028280704701468888F7
:10404000C0F308007047028A4FF6F0731A400282EC
:10405000028A0A430282704721B1828942F0020239
:10406000828104E082894FF6FD731A408281704795
:1040700082894FF2FF731A40828182890A438281CA
:104080007047028A4FF6DF731A400282028A0A439F
:104090000282704721B1028A42F48042028204E027
:1040A000028A4BF6FF731A4002827047818941F001
:1040B00001018181704721B1828A42F00802828227
:1040C00004E0828A4FF6F7731A4082827047028BAF
:1040D000D2B20283028B42EA01220283704721B1ED
:1040E000828A42F02002828204E0828A4FF6DF73E5
:1040F0001A408282704721B1828A42F01002828285
:1041000004E0828A4FF6EF731A4082827047828AF7
:104110004FF6FB731A408282828A0A43828270477A
:1041200021B1828A42F00202828204E0828A4FF642
:10413000FD731A40828270471AB1838A0B438382CF
:1041400002E0838A8B4383827047F0B503460024E4
:10415000002600250020A1F510676A3F00D100BFAE
:104160001846C1F3421401F01F06012707FA06F5AD
:10417000012C01D10C3004E0022C01D1103000E000
:1041800014301AB107682F43076002E00768AF4395
:104190000760F0BD02460020B1F5007F00D100BFEE
:1041A00013880B4201D0012000E00020704701F489
:1041B0000072B2F5007F00D100BFCA430280704791
:1041C00070B502460024002300250020A1F51066EA
:1041D0006A3E00D100BFC1F3421501F01F03012662
:1041E00006FA03F3012D13D19689334017E000003E
:1041F000001001400044004000480040004C0040D6
:10420000005000400014014000780040007C004055
:10421000022D02D1168A334001E0968A33400C12F7
:10422000012606FA04F41688344013B10CB10120BB
:1042300000E0002070BD10B500220023A1F510643D
:104240006A3C00D100BF0A1201249440A3B2DC43AF
:10425000048010BD0CB500200190009075480068E6
:1042600040F480307349086000BF7248006800F471
:10427000003000900198401C0190009818B90198F6
:10428000B0F5A06FF1D16B48006810F4003F02D088
:104290000120009001E0002000900098012845D105
:1042A00064484030006840F0805062494031086006
:1042B0006148006840F440405F4908605D4808304C
:1042C00000685C49083108600846006840F4004016
:1042D00008600846006840F4A05008605748091F6D
:1042E0000860081F006840F08070091F086000BF68
:1042F0005048006810F0007FFAD040F20570504935
:1043000008604C480830006820F003004949083133
:1043100008600846006840F00200086000BF454899
:104320000830006800F00C000828F8D10CBD10B56A
:104330004448006840F47000424908603D48006805
:1043400040F001003B49086000203A49083108600C
:10435000384800683C490840364908603B48091D18
:104360000860081F006820F48020091F08600020F2
:1043700030490C310860FFF76DFF4FF000603149A4
:104380008039086010BD70B500200022022300248F
:104390000221284D08352D6805F00C0020B10428B5
:1043A00006D0082834D107E0294D2A4E356033E085
:1043B000294D284E35602FE01E4D2D1D2D68C5F36B
:1043C00080541C4D2D1D2D6805F03F0154B1224D28
:1043D000B5FBF1F5174E361D3668C6F3881605FB9A
:1043E00006F209E01A4DB5FBF1F5124E361D36689E
:1043F000C6F3881605FB06F20E4D2D1D2D68C5F37C
:1044000001456D1C6B00B2FBF3F5124E356003E005
:104410000F4D104E356000BF00BF064D08352D68AA
:10442000C5F303150D4E705D0A4D2D68C540094E4C
:10443000356070BD003802400070004019544007DC
:10444000003C024088ED00E0FFFFF6FE1030002443
:104450000024F400B400002000127A00B80000200C
:104460000648804706480047FEE7FEE7FEE7FEE70E
:10447000FEE7FEE7FEE7FEE7FEE7FEE72F43000864
:1044800089010008004870473053000810B5044601
:10449000FFF7F8FF0068005D00F0010010BD40EA82
:1044A00001039B0703D009E008C9121F08C0042AB2
:1044B000FAD203E011F8013B00F8013B521EF9D299
:1044C0007047D2B201E000F8012B491EFBD27047C1
:1044D0000022F6E710B513460A4604461946FFF7D0
:1044E000F0FF204610BD30B505462A460B4612F8AF
:1044F000010B13F8014B08B1A042F8D01CB1002801
:1045000002D06D1CF1E7284630BD421C10F8011B9B
:104510000029FBD1801A7047034611F8012B00F8DF
:10452000012B002AF9D11846704730B50546002006
:10453000034600E05B1C934205D2EC5CC85C201A89
:1045400001D1002CF6D130BD0FB400B589B00BA855
:1045500000906A4603480A9900F038F909B05DF8FE
:1045600014FB0000C80000202DE9FF5FD2E901A77D
:104570004FF00008916999461446DDF838B0464678
:1045800001988847054659EA0B0005D009E0A16962
:10459000761C019888470546216A284688470028E6
:1045A000F5D1681C03D05FEACA7005D015E04FF062
:1045B000FF3004B0BDE8F09F2068011D2160D0F8F5
:1045C00000800AE05FEACA7001D108F8015B7F1E33
:1045D000A169761C019888470546002F1ADD681CE2
:1045E00018D0B9F1000F0DD0E81705EBD0604211DB
:1045F00020F01F0059F822102A1A01209040014291
:10460000E0D107E0BBF1000FDCD1216A28468847E2
:104610000028D7D0E169019888470AF0010050EAE4
:104620000B0002D1002188F80010A068B84203DD19
:10463000BBF1000F03D017B16FF00100B9E73046AE
:10464000B7E72DE9F04791460F468046044600261D
:1046500014F8015B2DB1FFF715FF0068405DC0073E
:10466000F6D12B2D02D02D2D18D0641E4A46394686
:10467000204600F05CF827B13968A14201D1C7F8A3
:10468000008071054FF002040BD54042002803DD85
:1046900000F0CAFA0460A007BDE8F08746F480661F
:1046A000E4E70028F8DA00F0BFFA04606FF0004099
:1046B000F2E770B5064600F0B7FA046805460A222C
:1046C00000213046FFF7BDFF2C6070BD2DE9F05F83
:1046D0000546002092469B46884606468146402471
:1046E0001BE0284641464746224600F0B0F85346B4
:1046F0005A46C01A914110D311461846224600F07E
:1047000097F82D1A67EB01084F4622460120002139
:1047100000F08EF817EB00094E41201EA4F10104B1
:10472000DFDC484631462A464346BDE8F09F2DE986
:10473000F05F82460078002715468B460AF1010497
:10474000B946302801D09DB113E014F8010B0127C0
:10475000782803D0582801D045B10AE00DB1102DBA
:1047600007D10027102514F8010B02E0082500E00E
:104770000A250026B0460EE005FB080005FB06F101
:10478000012701EB10461FFA80F8B6F5803F00D3F1
:10479000B94614F8010B294600F069F80028EBDA55
:1047A000BBF1000F05D00FB1641E00E05446CBF8FA
:1047B0000040B9F1000F06D000F036FA0221016086
:1047C000C81EBDE8F09F48EA0640FAE7024B936135
:1047D000024BD36100F060B8E513000821480008DF
:1047E000064C074D06E0E06840F0010394E807003E
:1047F00098471034AC42F6D3FBF7CAFC3453000898
:1048000054530008094910B508784C1C18B1401ED3
:104810000870205C10BD00210720ABBE207010BDC9
:1048200002490878421C0A7070470000D40000203A
:10483000202A04DB203A00FA02F100207047914060
:10484000C2F1200320FA03F3194390407047202A55
:1048500004DB203A21FA02F00021704721FA02F32A
:10486000D040C2F1200291400843194670473A28CF
:1048700000D2303820F02002412A01D3A2F13700C3
:10488000884201D34FF0FF307047000002681144A6
:104890001378016018467047D1600449516104499A
:1048A000116200211161114600F004B88D48000822
:1048B0008D4400082DE9F34F8BB04FF0000801F153
:1048C0000C000C464FF0010B46460DF1080A019012
:1048D000626901210198904705002DD0252D2CD02B
:1048E000216A8847C0B16269012101989047216A15
:1048F00088470028F7D1411E62690198904700E07F
:10490000761CA1690B988847216A88470028F7D14F
:10491000E1690B988847DBE7A1690B988847074650
:10492000A84201D1761CD3E7E1690B9888477F1C28
:1049300002D1B8F1000F6FD045E1002762693D4612
:104940003946019890472A2804D1626901210198CB
:1049500090470125DFF88492626901210198904710
:10496000A0F130010A290AD24F45E5DC07EB8701A7
:1049700000EB4107303FDFD445F01005ECE7E906D6
:1049800001D46FF000476C280AD04C2814D0682856
:1049900015D06A280DD074281CD07A281AD01DE0B2
:1049A00062690121019890476C2802D045F0040506
:1049B00014E045F002050DE045F020050AE06269CB
:1049C000012101989047682802D045F0080505E0CC
:1049D00045F400656269012101989047C4E90157D7
:1049E00065283DD019DC582879D00CDC452837D013
:1049F00004DC252826D0412831D131E046282FD0AB
:104A000047282CD12CE05B287FD0612828D0632850
:104A10007BD0642823D159E0CFE06F2847D008DC51
:104A200066281DD067281BD0692821D06E2816D192
:104A300027E0702844D0732867D0752846D078289E
:104A40000DD14CE0A1690B988847054625283FF415
:104A500069AFE1690B9888476D1C3FF46AAFB2E01B
:104A600023466A466FF001000B99AFF300809DE08A
:104A700045F040006060A80723464FF0000235D49F
:104A80003DE0206800F1040121600068290501D59E
:104A900006701DE7290701D5068019E7A90704D587
:104AA0004FEAE671C0E9006112E7066010E745F0E1
:104AB00040006060A80723464FF0080216D41EE0AD
:104AC00040F60E0125EA0100606016E045F0400066
:104AD0006060A80723464FF00A0207D40FE045F0B4
:104AE00040006060A80708D5234610226FF001003F
:104AF0000B99AFF3008059E007E0234610226FF0D6
:104B000001000B99AFF3008050E04FF000094F46D1
:104B10004B46632802D05B2806D040E0E80601D46B
:104B20000120A06001273AE06269012101989047C5
:104B30005E2805D14FF00109626949460198904706
:104B4000216939B900210B46524642F82130491CEF
:104B50000829FADBB0B3216969B9C11700EBD1614B
:104B60004B110AEB830221F01F01411A0120136847
:104B700088400343136062690121019890475D28D2
:104B8000E8D1B9F1000F09D00020514651F820209A
:104B9000D24341F82020401C0828F7DB02AB224614
:104BA00000976FF001000B99FFF7DEFC00280CDA8C
:104BB000401C08D1BBF1000F05D04FF0FF300DB005
:104BC000BDE8F08FFFE74046F9E7E90701D108F1BA
:104BD000010806444FF0000B7AE60000CCCCCC0C68
:104BE0000FB4054B10B503A9044A029800F030F841
:104BF00010BC5DF814FB000099130008CC000020E5
:104C00000FB4084B10B504A902AA039800F020F8CD
:104C1000044602A9002000F04AFA204610BC5DF8C4
:104C200014FB0000AF50000800487047D00000207F
:104C300002E008C8121F08C1002AFAD17047704765
:104C4000002001E001C1121F002AFBD170470000C3
:104C50002DE9FF4F8DB00F4605460026DEE12528E1
:104C600074D100246D1CF149A246A14601222B7883
:104C7000203B02FA03F0084202D004436D1CF6E721
:104C800028782A2810D06FF02F022878A0F1300160
:104C9000092915D80AEB8A0102EB410144F002040C
:104CA00000EB010A6D1CF0E757F804ABBAF1000FF6
:104CB00003DA44F40054CAF1000A44F002046D1C03
:104CC00028782E2817D115F8010F44F004042A285B
:104CD0000ED06FF02F022878A0F1300109290AD8F0
:104CE00009EB890102EB410100EB01096D1CF2E7C0
:104CF00057F8049B6D1C28786C280FD006DC4C28D4
:104D000017D068280DD06A2814D104E0742810D078
:104D10007A280FD10DE044F400140AE044F4801422
:104D200001E044F440146978814202D16D1C04F51D
:104D300080146D1C2A786E2A20D00DDC632A33D0B3
:104D400005DC002A6FD0582A12D1A2E011E0642AB3
:104D50006AD0692A0CD167E0732A2FD004DC6F2A4D
:104D60006FD0702A04D199E0752A6BD0782A6AD066
:104D70001046DDE90F129047761C4EE1C4F3025055
:104D8000022806D003280AD0042801CF0AD00660E2
:104D900043E101CF4FEAE671C0E900613DE101CF97
:104DA00006803AE1067038E117F8040B8DF8000030
:104DB00000208DF80100EB46012003E057F804BB0A
:104DC0004FF0FF3061074FF0000102D40DE008F111
:104DD0000101884649450FDA8045F8DB1BF80810C9
:104DE0000029F4D108E008F1010188468142FADB8C
:104DF0001BF808100029F6D1DDE90F23AAEB080003
:104E00008146214600F03BF9304400EB080604E0FF
:104E1000DDE90F121BF8010B9047B8F10108F7D23A
:104E200021464846F4E0FDE00A21C4F302534FF066
:104E3000000B0891022B07D001CFC117032B09D01B
:104E40000AE034E023E024E0FF1D27F00707F7E83D
:104E5000020105E000B2C117042B01D140B2C11715
:104E6000002907DA4FF0000CD0EB0C006CEB0101CD
:104E70002D2302E0230504D52B238DF824300123B4
:104E800003E0E30701D02023F7E7984650E00A212A
:104E90000EE010204FF0000B08900CE010214FF0B6
:104EA000000B44F004044FF00809089103E00821C6
:104EB0004FF0000B0891C4F30253022B04D001CF32
:104EC0000021032B06D006E0FF1D27F00707F7E8B7
:104ED000020103E080B2042B00D1C0B24FF0000801
:104EE000230725D5702A2AD0DDF820C08CF0100CBD
:104EF0005CEA0B0C09D150EA010306D030238DF88F
:104F000024308DF8252002239846DDF820C08CF04F
:104F1000080C5CEA0B0C0BD150EA010301D16307CA
:104F200006D530238DF824304FF00108A9F101098E
:104F3000582A09D03EA20B9208AA0A9211E04023F7
:104F40008DF824300123DFE73EA2F4E75B46089AA0
:104F5000FFF7BCFB0B9B9B5C0A9AA2F101020A9231
:104F6000137050EA0102F1D10A98ADEB000000F194
:104F7000200B600702D524F4803401E04FF00109D2
:104F8000D94502DDA9EB0B0000E0002000EB0B018E
:104F900041440890AAEB010AE00306D4DDE90F239F
:104FA0002146504600F06BF80644002008E009A9AD
:104FB00011F80900DDE90F129047761C09F1010094
:104FC00081464045F3DBE0030CD5DDE90F232146A4
:104FD000504600F054F8064404E0DDE90F1230209A
:104FE0009047761C0899481E08900029F5DC08E0D7
:104FF0000A980A990078491C0A91DDE90F12904736
:10500000761CBBF10001ABF1010BF1DC21465046EF
:10501000DDE90F2300F020F806446D1C28780028F5
:105020007FF41DAE11B03046BDE8F08F09280100B5
:10503000303132333435363738396162636465660E
:1050400000000000303132333435363738394142D0
:1050500043444546000000002DE9F0410446002588
:105060001E461746880405D406E039462020B0477E
:1050700005F10105641EF8D52846BDE8F0812DE94B
:10508000F041044600251E469046C80301D530274E
:1050900000E02027880405D506E041463846B047A1
:1050A00005F10105641EF8D52846BDE8F0810A68BF
:1050B000531C0B6010707047456E746572207365E9
:1050C00072766572206E616D6520286F722074683B
:1050D0006520706565722074657374636C69656EB4
:1050E000742049502C207065657220746573746358
:1050F0006C69656E742073686F756C64207374617D
:1051000072742054435020736572766572206F6EFE
:1051100020706F7274203830293A20285B43525D2A
:1051200020746F20616363657074202573290A0DF4
:1051300000000000456E74657220536563757269E6
:105140007479204D6F64652028652E672E2C2030E1
:1051500020666F72206F70656E2C203220666F7231
:105160002057504120544B49502C203420666F72F8
:105170002057504132204145532C203620666F7213
:105180002057504132204D49584544293A0A0D00D4
:10519000485454502F312E3120323030204F4B0D97
:1051A0000A436F6E74656E742D547970653A20747D
:1051B0006578742F68746D6C0D0A436F6E6E65634D
:1051C00074696F6E3A20636C6F73650D0A436F6E7E
:1051D00074656E742D4C656E6774683A2034370DB3
:1051E0000A0D0A3C68746D6C3E3C626F64793E48FF
:1051F000656C6C6F2066726F6D20534E38323030A4
:1052000020232532643C2F626F64793E3C2F687402
:105210006D6C3E0D0A0D0A000A4854545020257347
:1052200052535020636F64653A2025642C207365C7
:1052300071233A2025642C20436F6E74656E7420B0
:105240004C656E6774683A2025642C20547970652B
:105250003A2025732C204D6F726520646174613A89
:105260002025730A0D0000000A4854545020525360
:105270005020696E6469636174696F6E2C20736578
:1052800071233A2025642C20636F6E74656E742040
:105290006C656E6774683A2025642C204D6F7265CA
:1052A00020646174613A2025730A0D00004040407B
:1052B00040404040404041414141414040404040E9
:1052C0004040404040404040404040404005020295
:1052D0000202020202020202020202020220202054
:1052E00020202020202020020202020202029090B0
:1052F00090909090101010101010101010101010AE
:105300001010101010101010020202020202888801
:10531000888888880808080808080808080808080D
:1053200008080808080808080202020240000000F5
:10533000AD5200085453000800000020D8000000BF
:10534000304C00082C540008D800002038660100BA
:10535000404C00080000000000000000000000FFBA
:10536000FFFF00000500000000000000000000003A
:1053700000000000000000001027000000000000F6
:10538000000000000001000000000000000000001C
:10539000000000000000000000000000000000000D
:1053A000000000000000000000000000FFFFFFFF01
:1053B000FFFFFFFF0000000000000000FFFFFFFFF5
:1053C000FFFFFFFF000000000000000000000000E1
:1053D00000000000000000000000000000000000CD
:1053E00000000000000000000000000000000000BD
:1053F000000000000000000000010203040102039D
:105400000406070809000000007A030A00000000F3
:105410000000000001020304060708090000000064
:0C54200000000000000000000000000080
:040000050800018965
:00000001FF
